:020000040800F2
:100000000050002025210008F11D0008F71D000800
:10001000FD1D0008031E0008091E00080000000066
:100020000000000000000000000000000F1E00089B
:100030001B1E000800000000271E0008331E0008D9
:100040006D2100086D2100086D2100086D21000858
:100050006D2100086D2100086D2100086D21000848
:100060006D2100086D2100086D2100086D21000838
:100070006D2100086D2100086D2100086D21000828
:100080006D2100086D2100086D2100086D21000818
:100090006D2100086D2100086D2100086D21000808
:1000A0006D2100086D2100086D2100086D210008F8
:1000B0006D2100086D2100086D2100086D210008E8
:1000C0006D2100086D2100086D2100086D210008D8
:1000D0006D210008411E00086D2100086D210008F7
:1000E0006D2100086D2100086D210008000000004E
:1000F0000000000000000000000000000000000000
:0C01000000000000000000005FF808F1A3
:1001100010B5054C237833B9044B13B10448AFF341
:1001200000800123237010BDF401002000000000B6
:100130005489000808B5034B1BB103490348AFF3CA
:10014000008008BD00000000F8010020548900086C
:1001500010F8012B11F8013B012A28BF9A42F7D071
:10016000D01A7047034613F8012B002AFBD1181A46
:100170000138704781F0004102E000BF83F0004386
:1001800030B54FEA41044FEA430594EA050F08BF32
:1001900090EA020F1FBF54EA000C55EA020C7FEAF6
:1001A000645C7FEA655C00F0E2804FEA5454D4EB73
:1001B0005555B8BF6D420CDD2C4480EA020281EA3D
:1001C000030382EA000083EA010180EA020281EA75
:1001D0000303362D88BF30BD11F0004F4FEA0131C7
:1001E0004FF4801C4CEA113102D0404261EB4101D6
:1001F00013F0004F4FEA03334CEA133302D052425C
:1002000063EB430394EA050F00F0A780A4F1010417
:10021000D5F1200E0DDB02FA0EFC22FA05F2801851
:1002200041F1000103FA0EF2801843FA05F3594137
:100230000EE0A5F120050EF1200E012A03FA0EFCB6
:1002400028BF4CF0020C43FA05F3C01851EBE371E0
:1002500001F0004507D54FF0000EDCF1000C7EEBFD
:1002600000006EEB0101B1F5801F1BD3B1F5001F3B
:100270000CD349085FEA30004FEA3C0C04F101045A
:100280004FEA445212F5800F80F09A80BCF1004F83
:1002900008BF5FEA500C50F1000041EB045141EA05
:1002A000050130BD5FEA4C0C404141EB0101013CCE
:1002B00028BFB1F5801FE9D291F0000F04BF0146BD
:1002C0000020B1FA81F308BF2033A3F10B03B3F18F
:1002D00020020CDA0C3208DD02F1140CC2F10C021F
:1002E00001FA0CF021FA02F10CE002F11402D8BF7D
:1002F000C2F1200C01FA02F120FA0CFCDCBF41EA49
:100300000C019040E41AA2BF01EB0451294330BD17
:100310006FEA04041F3C1CDA0C340EDC04F11404F4
:10032000C4F1200220FA04F001FA02F340EA0300CB
:1003300021FA04F345EA030130BDC4F10C04C4F111
:10034000200220FA02F001FA04F340EA03002946F1
:1003500030BD21FA04F0294630BD94F0000F83F43B
:10036000801306BF81F480110134013D4EE77FEA1E
:10037000645C18BF7FEA655C29D094EA050F08BF6A
:1003800090EA020F05D054EA000C04BF194610464B
:1003900030BD91EA030F1EBF0021002030BD5FEA8F
:1003A000545C05D14000494128BF41F0004130BDB7
:1003B00014F580043CBF01F5801130BD01F000450B
:1003C00045F0FE4141F470014FF0000030BD7FEA7E
:1003D000645C1ABF194610467FEA655C1CBF0B4679
:1003E000024650EA013406BF52EA033591EA030F90
:1003F00041F4002130BD00BF90F0000F04BF002188
:10040000704730B54FF4806404F132044FF00005BA
:100410004FF0000150E700BF90F0000F04BF002133
:10042000704730B54FF4806404F1320410F0004599
:1004300048BF40424FF000013EE700BF42004FEA94
:10044000E2014FEA31014FEA02701FBF12F07F4311
:1004500093F07F4F81F06051704732F07F4208BFC8
:10046000704793F07F4F04BF41F40021704730B5CF
:100470004FF4607401F0004521F000411CE700BF1B
:1004800050EA010208BF704730B54FF000050AE09E
:1004900050EA010208BF704730B511F0004502D59F
:1004A000404261EB41014FF4806404F132045FEAA1
:1004B000915C3FF4D8AE4FF003025FEADC0C18BF4A
:1004C00003325FEADC0C18BF033202EBDC02C2F13C
:1004D000200300FA03FC20FA02F001FA03FE40EACE
:1004E0000E0021FA02F11444BDE600BF70B54FF0D2
:1004F000FF0C4CF4E06C1CEA11541DBF1CEA1355B0
:1005000094EA0C0F95EA0C0F00F0DEF82C4481EA17
:10051000030621EA4C5123EA4C5350EA013518BF37
:1005200052EA033541F4801143F4801338D0A0FB24
:1005300002CE4FF00005E1FB02E506F00042E0FBD1
:1005400003E54FF00006E1FB03569CF0000F18BFD7
:100550004EF0010EA4F1FF04B6F5007F64F540747F
:1005600004D25FEA4E0E6D4146EB060642EAC62112
:1005700041EA55514FEAC52040EA5E504FEACE2E7F
:10058000B4F1FD0C88BFBCF5E06F1ED8BEF1004F82
:1005900008BF5FEA500E50F1000041EB045170BDFE
:1005A00006F0004646EA010140EA020081EA030142
:1005B000B4EB5C04C2BFD4EB0C0541EA045170BD3E
:1005C00041F480114FF0000E013C00F3AB8014F1B8
:1005D000360FDEBF002001F0004170BDC4F1000401
:1005E000203C35DA0C341BDC04F11404C4F1200582
:1005F00000FA05F320FA04F001FA05F240EA0200DD
:1006000001F0004221F0004110EBD37021FA04F612
:1006100042EB06015EEA430E08BF20EAD37070BDCC
:10062000C4F10C04C4F1200500FA04F320FA05F02B
:1006300001FA04F240EA020001F0004110EBD3702D
:1006400041F100015EEA430E08BF20EAD37070BD9D
:10065000C4F1200500FA05F24EEA020E20FA04F376
:1006600001FA05F243EA020321FA04F001F0004125
:1006700021FA04F220EA020000EBD3705EEA430E96
:1006800008BF20EAD37070BD94F0000F0FD101F0C5
:100690000046400041EB010111F4801F08BF013CFE
:1006A000F7D041EA060195F0000F18BF704703F03C
:1006B0000046520043EB030313F4801F08BF013DC3
:1006C000F7D043EA0603704794EA0C0F0CEA13557F
:1006D00018BF95EA0C0F0CD050EA410618BF52EA39
:1006E0004306D1D181EA030101F000414FF000003F
:1006F00070BD50EA410606BF1046194652EA43064D
:1007000019D094EA0C0F02D150EA013613D195EAC0
:100710000C0F05D152EA03361CBF104619460AD108
:1007200081EA030101F0004141F0FE4141F4700112
:100730004FF0000070BD41F0FE4141F4780170BD02
:1007400070B54FF0FF0C4CF4E06C1CEA11541DBF67
:100750001CEA135594EA0C0F95EA0C0F00F0A7F869
:10076000A4EB050481EA030E52EA03354FEA013196
:1007700000F088804FEA03334FF0805545EA1313A9
:1007800043EA12634FEA022245EA111545EA106571
:100790004FEA00260EF000419D4208BF964244F108
:1007A000FD0404F5407402D25B084FEA3202B61A27
:1007B00065EB03055B084FEA32024FF480104FF4FB
:1007C000002CB6EB020E75EB030E22BFB61A75466F
:1007D00040EA0C005B084FEA3202B6EB020E75EB02
:1007E000030E22BFB61A754640EA5C005B084FEA6A
:1007F0003202B6EB020E75EB030E22BFB61A754637
:1008000040EA9C005B084FEA3202B6EB020E75EB41
:10081000030E22BFB61A754640EADC0055EA060E02
:1008200018D04FEA051545EA16754FEA06164FEA45
:10083000C30343EA52734FEAC2025FEA1C1CC0D1F1
:1008400011F4801F0BD141EA00014FF000004FF07E
:10085000004CB6E711F4801F04BF01430020B4F13F
:10086000FD0C88BFBCF5E06F3FF6AFAEB5EB030CF7
:1008700004BFB6EB020C5FEA500C50F1000041EBF4
:10088000045170BD0EF0004E4EEA113114EB5C04C1
:10089000C2BFD4EB0C0541EA045170BD41F4801194
:1008A0004FF0000E013C90E645EA060E8DE60CEA9C
:1008B000135594EA0C0F08BF95EA0C0F3FF43BAFB9
:1008C00094EA0C0F0AD150EA01347FF434AF95EA70
:1008D0000C0F7FF425AF104619462CE795EA0C0F54
:1008E00006D152EA03353FF4FDAE1046194622E721
:1008F00050EA410618BF52EA43067FF4C5AE50EAFB
:1009000041047FF40DAF52EA43057FF4EBAE12E7EA
:100910004FF0FF3C06E000BF4FF0010C02E000BFCB
:100920004FF0010C4DF804CD4FEA410C7FEA6C5CAE
:100930004FEA430C18BF7FEA6C5C1BD001B050EA51
:10094000410C0CBF52EA430C91EA030F02BF90EA3C
:10095000020F0020704710F1000F91EA030F58BFFB
:10096000994208BF90422CBFD8176FEAE37040F05D
:10097000010070474FEA410C7FEA6C5C02D150EAFB
:10098000013C07D14FEA430C7FEA6C5CD6D152EAB6
:10099000033CD3D05DF8040B704700BF844610467B
:1009A00062468C461946634600E000BF01B5FFF77A
:1009B000B7FF002848BF10F1000F01BD4DF808ED4A
:1009C000FFF7F4FF0CBF012000205DF808FB00BF1B
:1009D0004DF808EDFFF7EAFF34BF012000205DF875
:1009E00008FB00BF4DF808EDFFF7E0FF94BF0120C2
:1009F00000205DF808FB00BF4DF808EDFFF7CEFFC3
:100A000094BF012000205DF808FB00BF4DF808ED01
:100A1000FFF7C4FF34BF012000205DF808FB00BFD2
:100A20004FEA410C7FEA6C5C02D150EA013C0AD1EA
:100A30004FEA430C7FEA6C5C02D152EA033C02D1DC
:100A40004FF0000070474FF0010070474FEA41023D
:100A500012F5001215D211D56FF47873B3EB625210
:100A600012D94FEAC12343F0004343EA505311F037
:100A7000004F23FA02F018BF404270474FF00000C9
:100A8000704750EA013005D111F0004008BF6FF007
:100A9000004070474FF00000704700BF4A0011D27D
:100AA00012F5001211D20DD56FF47873B3EB6252C8
:100AB0000ED44FEAC12343F0004343EA505323FAD4
:100AC00002F070474FF00000704750EA013002D149
:100AD0004FF0FF3070474FF0000070474FEA41027F
:100AE000B2F1E04324BFB3F5001CDCF1FE5C0DD98C
:100AF00001F0004C4FEAC0024CEA5070B2F1004FD6
:100B000040EB830008BF20F00100704711F0804FD8
:100B100021D113F13872BCBF01F00040704741F49D
:100B200080114FEA5252C2F11802C2F1200C10FAA1
:100B30000CF320FA02F018BF40F001004FEAC12385
:100B40004FEAD32303FA0CFC40EA0C0023FA02F329
:100B50004FEA4303CCE77FEA625307D150EA0133FF
:100B60001EBF4FF0FE4040F44000704701F00040CF
:100B700040F0FE4040F40000704700BF80F00040AD
:100B800002E000BF81F0004142001FBF5FEA410365
:100B900092EA030F7FEA226C7FEA236C6AD04FEA65
:100BA0001262D2EB1363C1BFD218414048404140AA
:100BB000B8BF5B42192B88BF704710F0004F40F45C
:100BC000000020F07F4018BF404211F0004F41F478
:100BD000000121F07F4118BF494292EA030F3FD044
:100BE000A2F1010241FA03FC10EB0C00C3F1200357
:100BF00001FA03F100F0004302D5494260EB4000E6
:100C0000B0F5000F13D3B0F1807F06D340084FEA50
:100C1000310102F10102FE2A51D2B1F1004F40EB45
:100C2000C25008BF20F0010040EA030070474900AD
:100C300040EB0000013A28BFB0F5000FEDD2B0FA4A
:100C400080FCACF1080CB2EB0C0200FA0CF0AABF6D
:100C500000EBC25052421843BCBFD040184370470B
:100C600092F0000F81F4000106BF80F40000013211
:100C7000013BB5E74FEA41037FEA226C18BF7FEAE8
:100C8000236C21D092EA030F04D092F0000F08BF2A
:100C90000846704790EA010F1CBF0020704712F011
:100CA0007F4F04D1400028BF40F00040704712F150
:100CB00000723CBF00F50000704700F0004343F0B5
:100CC000FE4040F4000070477FEA226216BF0846EB
:100CD0007FEA23630146420206BF5FEA412390EAAE
:100CE000010F40F4800070474FF0000304E000BFA4
:100CF00010F0004348BF40425FEA000C08BF704755
:100D000043F0964301464FF000001CE050EA010218
:100D100008BF70474FF000030AE000BF50EA01022D
:100D200008BF704711F0004302D5404261EB41011A
:100D30005FEA010C02BF84460146002043F0B6433F
:100D400008BFA3F18053A3F50003BCFA8CF2083A64
:100D5000A3EBC25310DB01FA02FC634400FA02FC6D
:100D6000C2F12002BCF1004F20FA02F243EB020074
:100D700008BF20F00100704702F1200201FA02FCD6
:100D8000C2F1200250EA4C0021FA02F243EB0200C9
:100D900008BF20EADC70704738B505460C460022D3
:100DA000002328462146FFF713FE28B9284621468E
:100DB000BDE8384000F00AB8284604F1004100F0D0
:100DC00005F8404261EB410138BD00BFD0B50022BB
:100DD0000B4B06460F46FFF789FBFFF75FFE044605
:100DE000FFF70AFB0022074BFFF780FB02460B468A
:100DF00030463946FFF7C2F9FFF750FE2146D0BD15
:100E00000000F03D0000F041B0B586B000AF002317
:100E1000FB754FF000033B61954A3B1D07CA03C3B6
:100E20001A7001F0A5F900F043F900F0DDF900F0C7
:100E300083F900F0AFF900F063FC8E4800F031FA5E
:100E40008D4B1B78002B00F0D4803869FFF7F6FA41
:100E500004460D46894B1B681846FFF745FF0346BD
:100E60001846FFF7EBFA80A3D3E90023FFF768FCED
:100E700002460B4620462946FFF782F902460B46FA
:100E800010461946FFF72AFE03463B613869FFF713
:100E9000D5FA4FF000027A4BFFF752FC02460B46A0
:100EA000381D784904F09EF8FB7D092B22D8FB7D84
:100EB000002B01D100F047FEFB7D0133FB756E4B2B
:100EC00000221A701921282000F082FD694BDB698D
:100ED00001226D49184600F011FE0021002000F0AB
:100EE00077FD3B1D01226949184600F007FE00F01E
:100EF000CBFCA5E7FB7D0E2B44D8FB7D0A2B01D153
:100F000000F021FEFB7D0133FB755B4B00221A7064
:100F10000021002000F05CFD564B9B6801225B49DC
:100F2000184600F0EBFD1421002000F051FD514B5C
:100F3000DB6801225549184600F0E0FD14216E20BF
:100F400000F046FD4B4B1B6901225049184600F04A
:100F5000D5FD2621002000F03BFD464B5B690122B8
:100F60004A49184600F0CAFD26216E2000F030FDE7
:100F7000404B9B6901224549184600F0BFFD00F037
:100F800083FC5DE7FB7D132B3FF65AAFFB7D0F2BF8
:100F900001D100F0D8FDFB7D0133FB75364B0022FB
:100FA0001A700021002000F013FD01223749384853
:100FB00000F0A4FD1421002000F00AFD2D4B5B6819
:100FC00001223249184600F099FD2821002000F046
:100FD000FFFC284B5B6A01222C49184600F08EFD6D
:100FE00000F052FCFB7D132B7FF62AAF0023FB752C
:100FF00026E7284B1B78012B0CD1274B1B78062B9F
:1010000008D0244B00221A7001222449244802F0FF
:101010004AFE26E01F4B1B78012B7FF411AF1E4BBD
:101020001B78062B7FF40CAF1E4B1B78002B0BD1CB
:10103000184B4B221A704A221B49194802F033FE02
:10104000184B01221A70FBE6164B00221A70124B45
:1010500000221A701549074800F06AF9064B012270
:101060001A70EDE6AFF30080CDCCCCCCCCCC0C40EC
:101070008489000808040020300400203404002083
:1010800000408F4070890008080000200000002008
:10109000788900081000002031040020330400206B
:1010A0006402002032040020AE020020A8020020CA
:1010B00080B590B000AF07F1180328220021184630
:1010C00003F03CFA3B1D00221A605A609A60DA6015
:1010D0001A610123BB614FF48033FB6100233B6243
:1010E0000123BB6202237B634FF48033BB634FF465
:1010F0000023FB6307F11803184602F06DF903465D
:10110000002B01D000F0C8F80F237B600223BB60E6
:101110000023FB6000233B6100237B613B1D012119
:10112000184602F0DBFB0346002B01D000F0B4F8B8
:1011300000BF4037BD4680BD80B500AF124B134A9B
:101140001A60114B124A5A600F4B00229A600E4BE4
:101150000022DA600C4B4FF480421A610A4B0022E5
:101160005A61094B00229A61074B0022DA61064B53
:1011700000221A62044801F0B7FB0346002B01D09D
:1011800000F08AF800BF80BD10020020005400402B
:10119000801A060080B500AF114B124A1A60104B3E
:1011A0004FF416525A600E4B00229A600C4B0022EC
:1011B000DA600B4B00221A61094B04225A61084B7A
:1011C00000229A61064B0022DA61054802F01EFDFA
:1011D0000346002B01D000F05FF800BF80BD00BFC8
:1011E000640200200038014080B588B000AF07F1EC
:1011F000100300221A605A609A60DA60244B9B69DF
:10120000234A43F010039361214B9B6903F01003C1
:10121000FB60FB681E4B9B691D4A43F020039361F2
:101220001B4B9B6903F02003BB60BB68184B9B6999
:10123000174A43F004039361154B9B6903F00403C1
:101240007B607B68124B9B69114A43F008039361F2
:101250000F4B9B6903F008033B603B6800224FF48F
:1012600000510C4801F028FB4FF400533B6101236F
:101270007B610023BB610223FB6107F11003194668
:10128000044801F095F900BF2037BD4680BD00BF7E
:10129000001002400010014080B400AF72B600BFE1
:1012A000FEE780B582B000AF78600A2003F03EF917
:1012B00003461A467B681A600C2003F037F9034690
:1012C0001A467B685A600A2003F030F903461A4632
:1012D0007B689A600A2003F029F903461A467B6866
:1012E000DA60022003F022F903461A467B681A618D
:1012F0000C2003F01BF903461A467B685A61022052
:1013000003F014F903461A467B689A610A2003F039
:101310000DF903461A467B68DA610A2003F006F9E4
:1013200003461A467B685A6200BF0837BD4680BD37
:10133000F0B591B004AF786039600023BB62002340
:1013400087F82730A249386804F08AFCF862C7E1C0
:10135000BB6A092B00F2B78101A252F823F000BF4B
:10136000891300089D130008771400081915000858
:101370002D150008411500085515000869150008CD
:10138000091600087D1600087B681B68F96A184674
:1013900003F048FEBB6A0133BB6298E17B68586882
:1013A000FB6A1B781D46FB6A01331B781E46FB6AED
:1013B00002331B781A46FB6A03331B781946FB6A13
:1013C00004331B781C46FB6A05331B780393029495
:1013D0000191009233462A467E4903F003FE7E497E
:1013E000F86AFEF7B5FE0346002B40D17B4B002286
:1013F0001A607B4BFB627B685B68FA6A7949184626
:1014000003F0F0FD784BFB627B68DB68F96A1846F5
:1014100003F008FE7B685B69F96A184603F002FE78
:10142000724BFB627B681B69F96A184603F0FAFD90
:101430007B689B69F96A184603F0F4FD7B689B683A
:101440006B49184603F0CEFD6A4BFB627B68DB6993
:10145000F96A184603F0E6FD674BFB627B685B6A3E
:10146000F96A184603F0DEFD012387F82730BB6ACE
:101470000133BB622BE16149F86AFEF769FE03465E
:10148000002B06D17B689B685D49184603F0AAFDD6
:101490003EE05149F86AFEF75BFE0346002B37D168
:1014A0004E4B00221A60504BFB627B68DB68F96A86
:1014B000184603F0B7FD7B685B69F96A184603F0CC
:1014C000B1FD4A4BFB627B681B69F96A184603F061
:1014D000A9FD7B689B69F96A184603F0A3FD7B6848
:1014E0009B684349184603F07DFD424BFB627B68D5
:1014F000DB69F96A184603F095FD3F4BFB627B6898
:101500005B6AF96A184603F08DFD012387F82730DE
:10151000BB6A0133BB62DAE07B68DB68F96A1846B4
:1015200003F080FDBB6A0133BB62D0E07B681B69BE
:10153000F96A184603F076FDBB6A0133BB62C6E068
:101540007B685B69F96A184603F06CFDBB6A01337E
:10155000BB62BCE07B689B69F96A184603F062FDD8
:10156000BB6A0133BB62B2E007F10C031946F86AAB
:1015700004F06AFBC7E9040113A3D3E90023D7E908
:101580000401FEF7B3FF02460B46C7E90423D7E97F
:101590000401FFF783FA0346104A1360D7E90401F8
:1015A000FFF754FA03461A461649F86A03F01AFD83
:1015B0007B68DB69F96A184603F034FDBB6A0133C6
:1015C000BB6284E0AFF300806F1283C0CAA1FD3F0D
:1015D0009089000894890008A48900083404002038
:1015E000A8890008B0890008B8890008C0890008E7
:1015F000C4890008CC890008D0890008D88900086F
:10160000DC890008E489000807F10C031946F86A30
:1016100004F01AFBC7E906014FF00002354BD7E989
:101620000601FFF7E9F90346002B23D07B68586ACF
:10163000FB6A1B781D46FB6A01331B781E46FB6A5A
:1016400002331B781A46FB6A03331B781946FB6A80
:1016500004331B781C46FB6A05331B780393029402
:101660000191009233462A46234903F0BBFC012333
:1016700087F82730BB6A0133BB6228E07B68586A71
:10168000FB6A1B781D46FB6A01331B781E46FB6A0A
:1016900002331B781A46FB6A03331B781946FB6A30
:1016A00004331B781C46FB6A05331B7803930294B2
:1016B0000191009233462A460F4903F093FCBB6A1E
:1016C0000133BB6203E0BB6A0133BB6200BF0B495D
:1016D000002004F0C5FAF86297F82730012B04D0F7
:1016E000FB6A002B7FF434AE00E000BF00BF34374C
:1016F000BD46F0BD0040B040EC890008908900086C
:1017000080B582B000AF00F027FA44F620630122D2
:1017100078215B4801F02AFB0346002B01D000230F
:10172000A9E040F6C4137B6002E07B68013B7B606C
:101730007B68002BF9D1AE220021782000F086FAD8
:1017400020220021782000F081FA10220021782048
:1017500000F07CFAB0220021782000F077FAC8224D
:101760000021782000F072FA00220021782000F099
:101770006DFA10220021782000F068FA4022002142
:10178000782000F063FA81220021782000F05EFAD0
:10179000FF220021782000F059FAA12200217820B0
:1017A00000F054FAA6220021782000F04FFAA82277
:1017B0000021782000F04AFA3F220021782000F032
:1017C00045FAA4220021782000F040FAD32200211B
:1017D000782000F03BFA00220021782000F036FA51
:1017E000D5220021782000F031FAF0220021782063
:1017F00000F02CFAD9220021782000F027FA2222CA
:101800000021782000F022FADA220021782000F06E
:101810001DFA12220021782000F018FADB220021A4
:10182000782000F013FA20220021782000F00EFA30
:101830008D220021782000F009FA1422002178205E
:1018400000F004FAAF220021782000F0FFF92E22E8
:101850000021782000F0FAF9002000F043F800F0B1
:1018600013F8084B00221A80064B00225A80054BC1
:1018700001225A71012318460837BD4680BD00BFBA
:10188000100200203808002080B582B000AF00238D
:10189000FB711DE0FB79503BDBB21A46002178203A
:1018A00000F0D4F900220021782000F0CFF91022B6
:1018B0000021782000F0CAF9FB79DB01084A1A44BC
:1018C00080234021782000F05BF9FB790133FB7124
:1018D000FB79072BDED900BF00BF0837BD4680BDAE
:1018E0003804002080B582B000AF0346FB71FB795D
:1018F000002B01D1002300E0FF234FF48062194642
:10190000034802F01BFE00BF0837BD4680BD00BF84
:101910003804002080B483B000AF0346FB800B4640
:10192000BB801346FB70FB887F2B48D8BB883F2BBE
:1019300045D8254B1B79002B06D0FB78002B0CBF1C
:1019400001230023DBB2FB70FB78012B1AD1FA884C
:10195000BB88DB0898B20346DB0113441B4AD35C07
:101960005AB2BB8803F00703012101FA03F35BB20B
:10197000134359B2FA880346DB011344C9B2134A30
:10198000D1541DE0FA88BB88DB0898B20346DB011E
:1019900013440E4AD35C5AB2BB8803F007030121FB
:1019A00001FA03F35BB2DB435BB2134059B2FA882E
:1019B0000346DB011344C9B2044AD15400E000BF1E
:1019C0000C37BD4680BC7047380800203804002022
:1019D00080B483B000AF03460A46FB801346BB8049
:1019E000054AFB881380044ABB88538000BF0C372C
:1019F000BD4680BC704700BF3808002080B586B067
:101A000000AF03463960FB711346BB713A4B1B882C
:101A10001A463B681B7813447F2B07DC364B5B88E8
:101A20001A463B685B7813443F2B01DD00235EE0E0
:101A300000237B614BE03B685A68FB79203B3968A7
:101A4000497801FB03F319467B690B445B0013449F
:101A50001B88FB6000233B6130E0FA683B6902FAB7
:101A600003F303F40043002B10D0234B1A883B6987
:101A70009BB2134498B2204B5A887B699BB21344A3
:101A80009BB2BA791946FFF745FF14E01A4B1A8842
:101A90003B699BB2134498B2174B5A887B699BB23F
:101AA000134499B2BB79002B0CBF01230023DBB296
:101AB0001A46FFF72FFF3B6901333B613B681B78F8
:101AC0001A463B699342C8D37B6901337B613B680B
:101AD0005B781A467B699342ADD3074B1A883B6803
:101AE0001B789BB213449AB2034B1A80FB791846B9
:101AF0001837BD4680BD00BF3808002080B584B0CF
:101B000000AFF860B9601346FB7112E0FB681B7808
:101B1000FA79B9681846FFF771FF03461A46FB6861
:101B20001B789A4202D0FB681B7808E0FB680133FF
:101B3000FB60FB681B78002BE8D1FB681B7818461C
:101B40001037BD4680BD80B500AF0020FFF7CAFE4C
:101B5000FFF79AFE00BF80BD80B483B000AF074B93
:101B60007B6002E07B68013B7B607B68002BF9D1E6
:101B700000BF00BF0C37BD4680BC704790D003004B
:101B800090B5C7B002AF0446084607F58871A1F5C5
:101B900088710A60194607F58873A3F20913224673
:101BA0001A7007F58873A3F5857302461A7007F556
:101BB0008873A3F586730A461A8007F58873A3F520
:101BC000827307F58872A2F5857212781A70002365
:101BD00087F80F3115E097F80F3107F58872A2F5F5
:101BE000887212681A4497F80F310133117807F59B
:101BF0008872A2F58272D15497F80F31013387F8B9
:101C00000F3197F80F319BB207F58872A2F58672F3
:101C100012889A42DFD807F58873A3F209131B785C
:101C200099B207F58873A3F586731B8801339BB2BD
:101C300007F10C020A200090034800F099FF00BF52
:101C400007F58A77BD4690BD1002002080B586B0AA
:101C500002AF0346FB710B46BB7113467B71BB7928
:101C60003B737B797B73FB7999B207F10C020A23F2
:101C700000930223034800F07BFF00BF1037BD46EE
:101C800080BD00BF1002002080B483B000AF0E4BB7
:101C90009B690D4A43F0010393610B4B9B6903F071
:101CA00001037B607B68084BDB69074A43F0805384
:101CB000D361054BDB6903F080533B603B6800BF99
:101CC0000C37BD4680BC70470010024080B588B01C
:101CD00000AF786007F1100300221A605A609A6022
:101CE000DA607B681B68154A934223D1144B9B69C9
:101CF000134A43F008039361114B9B6903F00803F7
:101D0000FB60FB68C0233B6112237B610323FB6103
:101D100007F1100319460B4800F04AFC084BDB6939
:101D2000074A43F40013D361054BDB6903F4001346
:101D3000BB60BB6800BF2037BD4680BD005400407B
:101D400000100240000C014080B588B000AF786000
:101D500007F1100300221A605A609A60DA607B680B
:101D60001B68204A934239D11F4B9B691E4A43F49A
:101D7000804393611C4B9B6903F48043FB60FB68C9
:101D8000194B9B69184A43F004039361164B9B69F6
:101D900003F00403BB60BB684FF400733B61022394
:101DA0007B610323FB6107F1100319460F4800F024
:101DB000FFFB4FF480633B6100237B610023BB6129
:101DC00007F110031946094800F0F2FB0022002138
:101DD000252000F006FB252000F01FFB00BF203768
:101DE000BD4680BD0038014000100240000801409F
:101DF00080B400AFFEE780B400AFFEE780B400AF70
:101E0000FEE780B400AFFEE780B400AFFEE780B429
:101E100000AF00BFBD4680BC704780B400AF00BFBC
:101E2000BD4680BC704780B400AF00BFBD4680BCDB
:101E3000704780B500AF00F0E1F900BF80BD000041
:101E400080B500AF4F4801F05FFF4F4B1B78002B70
:101E500011D14E4B1B78242B0DD14B4B1B781A46BE
:101E60004A4B19784A4B9954474B01221A70494BF7
:101E700001221A7083E0444B1B78012B11D1434B94
:101E80001B78472B0DD1404B1B781A463F4B1978D6
:101E90003F4B99543C4B02221A703E4B01221A7060
:101EA0006DE0394B1B78022B11D1384B1B78502B2E
:101EB0000DD1354B1B781A46344B1978344B995455
:101EC000314B03221A70334B01221A7057E02E4B0C
:101ED0001B78032B11D12D4B1B78522B0DD12A4B84
:101EE0001B781A46294B1978294B9954264B042202
:101EF0001A70284B01221A7041E0234B1B78042BE7
:101F000011D1224B1B784D2B0DD11F4B1B781A463C
:101F10001E4B19781E4B99541B4B05221A701D4BF2
:101F200001221A702BE0184B1B78052B11D1174B8F
:101F30001B78432B0DD1144B1B781A46134B197881
:101F4000134B9954104B06221A70124B01221A702F
:101F500015E00D4B1B78062B06D00B4B00221A7098
:101F60000C4B01221A700AE0074B1B78062B06D196
:101F7000084B1B78013BDAB2064B1A70FFE700BF33
:101F800080BD00BF64020020310400203304002023
:101F9000A80200201000002080B400AF01231846E2
:101FA000BD4680BC704780B582B000AF78603960B4
:101FB00002F092FA034616221A604FF0FF331846D9
:101FC0000837BD4680BD80B582B000AF78604FF065
:101FD000FF317868FFF7E7FFFEE780B586B000AF16
:101FE000F860B9607A6000237B610AE0AFF300809B
:101FF0000146BB685A1CBA60CAB21A707B690133C9
:102000007B617A697B689A42F0DB7B6818461837F7
:10201000BD4680BD80B586B000AFF860B9607A601B
:1020200000237B6109E0BB685A1CBA601B78184624
:10203000AFF300807B6901337B617A697B689A42E8
:10204000F1DB7B6818461837BD4680BD80B483B08D
:1020500000AF78604FF0FF3318460C37BD4680BCA8
:10206000704780B483B000AF786039603B684FF44C
:1020700000525A60002318460C37BD4680BC70479A
:1020800080B483B000AF7860012318460C37BD469A
:1020900080BC704780B485B000AFF860B9607A60EA
:1020A000002318461437BD4680BC704780B586B003
:1020B00000AF7860144A154BD31A7B617B693B6192
:1020C000134B1B68002B02D1114B124A1A60104BA4
:1020D0001A687B6813443A699A4207D202F0FCF905
:1020E00003460C221A604FF0FF3309E0084B1B68CF
:1020F000FB60074B1A687B681344054A1360FB6852
:1021000018461837BD4680BD00500020000400006E
:10211000400800205808002080B400AF00BFBD4632
:1021200080BC70470C480D490D4A002302E0D4588A
:10213000C4500433C4188C42F9D30A4A0A4C002311
:1021400001E013600432A242FBD3FFF7E5FF02F087
:10215000C9F9FEF759FE704700000020F401002085
:10216000D0AF0008F401002058080020FEE700006E
:1021700080B500AF084B1B68074A43F0100313609B
:10218000032000F023F90F2000F008F8FFF77CFD92
:102190000023184680BD00BF0020024080B582B0F9
:1021A00000AF7860124B1A68124B1B7819464FF437
:1021B0007A73B3FBF1F3B2FBF3F3184600F03BF98B
:1021C0000346002B01D001230EE07B680F2B0AD8B9
:1021D000002279684FF0FF3000F003F9064A7B686F
:1021E0001360002300E0012318460837BD4680BD78
:1021F000140000201C0000201800002080B400AF54
:10220000054B1B781A46054B1B681344034A1360A1
:1022100000BFBD4680BC70471C0000204408002061
:1022200080B400AF024B1B681846BD4680BC7047A7
:102230004408002080B485B000AF78607B6803F06C
:102240000703FB600C4BDB68BB60BA684FF6FF030B
:102250001340BB60FB681A02BB68134343F0BF63C3
:1022600043F40033BB60044ABB68D36000BF14373B
:10227000BD4680BC704700BF00ED00E080B400AFF9
:10228000044BDB681B0A03F007031846BD4680BCFD
:10229000704700BF00ED00E080B483B000AF03469C
:1022A000FB7197F90730002B0BDBFB7903F01F0262
:1022B000064997F907305B09012000FA02F241F85C
:1022C000232000BF0C37BD4680BC704700E100E012
:1022D00080B483B000AF03463960FB7197F90730D3
:1022E000002B0ADB3B68DAB20C4997F90730120180
:1022F000D2B20B4483F800230AE03B68DAB2084903
:10230000FB7903F00F03043B1201D2B20B441A769F
:1023100000BF0C37BD4680BC704700BF00E100E045
:1023200000ED00E080B489B000AFF860B9607A6079
:10233000FB6803F00703FB61FB69C3F10703042B90
:1023400028BF0423BB61FB690433062B02D9FB6958
:10235000033B00E000237B614FF0FF32BB6902FAD0
:1023600003F3DA43BB681A407B699A404FF0FF31B0
:102370007B6901FA03F3D9437B680B40134318468A
:102380002437BD4680BC704780B582B000AF78600E
:102390007B68013BB3F1807F01D301230FE00A4A40
:1023A0007B68013B53600F214FF0FF30FFF790FF38
:1023B000054B00229A60044B07221A60002318463E
:1023C0000837BD4680BD00BF10E000E080B582B098
:1023D00000AF78607868FFF72DFF00BF0837BD4673
:1023E00080BD80B586B000AF0346B9607A60FB73EC
:1023F00000237B61FFF742FF78617A68B9687869EA
:10240000FFF790FF024697F90F3011461846FFF785
:102410005FFF00BF1837BD4680BD80B582B000AFFA
:102420000346FB7197F907301846FFF735FF00BFE9
:102430000837BD4680BD80B582B000AF786078684F
:10244000FFF7A2FF034618460837BD4680BD80B49B
:1024500085B000AF78600023FB737B6893F8213070
:10246000022B08D07B6804229A637B68002283F8E1
:102470002020012320E07B681B681A687B681B68AA
:1024800022F00E021A607B681B681A687B681B6862
:1024900022F001021A607B681A6C7B68DB6B0121F9
:1024A00001FA02F25A607B68012283F821207B68DE
:1024B000002283F82020FB7B18461437BD4680BCE1
:1024C0007047000080B584B000AF78600023FB73D4
:1024D0007B6893F82130022B05D07B6804229A6335
:1024E0000123FB7351E07B681B681A687B681B68DB
:1024F00022F00E021A607B681B681A687B681B68F2
:1025000022F001021A607B681B68224A934229D09C
:102510007B681B68204A934222D07B681B681F4A55
:1025200093421AD07B681B681D4A934212D07B6885
:102530001B681C4A93420AD07B681B681A4A934264
:1025400002D14FF480130EE04FF080730BE04FF494
:10255000803308E04FF4805305E04FF4807302E0CD
:10256000102300E00123114A53607B68012283F8A5
:1025700021207B68002283F820207B685B6B002B86
:1025800003D07B685B6B78689847FB7B18461037F5
:10259000BD4680BD080002401C00024030000240E1
:1025A00044000240580002406C000240000002401B
:1025B00080B48BB000AF7860396000237B62002369
:1025C0003B6269E101227B6A02FA03F3FB613B682B
:1025D0001B68FA691340BB61BA69FB699A4240F013
:1025E00058813B685B689A4A93425ED0984A93420E
:1025F00075D8984A934258D0964A93426FD8964AD3
:10260000934252D0944A934269D8944A93424CD010
:10261000924A934263D8924A934246D0904A934258
:102620005DD8122B2AD8122B59D801A252F823F0C8
:10263000AB2600088526000897260008D926000842
:10264000DF260008DF260008DF260008DF26000856
:10265000DF260008DF260008DF260008DF26000846
:10266000DF260008DF260008DF260008DF26000836
:10267000DF2600088D260008A1260008794A93422B
:1026800013D02CE03B68DB683B6229E03B68DB68E9
:1026900004333B6224E03B68DB6808333B621FE0A5
:1026A0003B68DB680C333B621AE03B689B68002B9D
:1026B00002D104233B6213E03B689B68012B05D1E8
:1026C00008233B627B68FA691A6109E008233B62D0
:1026D0007B68FA695A6103E000233B6200E000BFB7
:1026E000BB69FF2B01D87B6801E07B6804337B6109
:1026F000BB69FF2B02D87B6A9B0002E07B6A083B28
:102700009B003B617B691A680F213B6901FA03F367
:10271000DB431A40396A3B6901FA03F31A437B69C8
:102720001A603B685B6803F08053002B00F0B180B7
:102730004D4B9B694C4A43F0010393614A4B9B69A3
:1027400003F00103BB60BB68484A7B6A9B08023305
:1027500052F82330FB607B6A03F003039B000F22D7
:1027600002FA03F3DB43FA681340FB607B68404ADC
:10277000934213D07B683F4A93420DD07B683E4A18
:10278000934207D07B683D4A934201D1032306E080
:10279000042304E0022302E0012300E000237A6A1C
:1027A00002F0030292009340FA681343FB602F4942
:1027B0007B6A9B080233FA6841F823203B685B6818
:1027C00003F48033002B06D02D4B1A682C49BB69CB
:1027D00013430B6006E02A4B1A68BB69DB432849A8
:1027E00013400B603B685B6803F40033002B06D09A
:1027F000234B5A682249BB6913434B6006E0204BC8
:102800005A68BB69DB431E4913404B603B685B68F9
:1028100003F48013002B06D0194B9A681849BB6942
:1028200013438B6006E0164B9A68BB69DB4314497F
:1028300013408B603B685B6803F40013002B21D0CE
:102840000F4BDA680E49BB691343CB6021E000BF30
:102850000000321000003110000022100000211092
:102860000000121000001110001002400000014092
:1028700000080140000C014000100140001401401C
:10288000000401400B4BDA68BB69DB430949134084
:10289000CB607B6A01337B623B681A687B6A22FAF1
:1028A00003F3002B7FF48EAE00BF00BF2C37BD4674
:1028B00080BC70470004014080B483B000AF7860F2
:1028C0000B467B8013467B707B78002B03D07A8885
:1028D0007B681A6103E07B881A047B681A6100BF79
:1028E0000C37BD4680BC704780B584B000AF7860BF
:1028F0007B68002B01D101232BE17B6893F83D30ED
:10290000DBB2002B06D17B68002283F83C2078687C
:10291000FFF7DCF97B68242283F83D207B681B6885
:102920001A687B681B6822F001021A607B681B68CA
:102930001A687B681B6842F400421A607B681B6857
:102940001A687B681B6822F400421A6001F018F9CB
:10295000F8607B685B68814A934207D8FB68804ACD
:10296000934294BF01230023DBB206E0FB687D4A5B
:10297000934294BF01230023DBB2002B01D001233B
:10298000E7E0FB68784AA2FB03239B0CBB607B68F3
:102990001B685B6823F03F017B681B68BA680A43C9
:1029A0005A607B681B681B6A23F03F017B685B6889
:1029B0006A4A934202D8BB68013309E0BB684FF40E
:1029C000967202FB03F3694AA2FB03239B090133BE
:1029D0007A6812680B4313627B681B68DB6923F417
:1029E0004F4222F0FF027B685B685C498B4219D83A
:1029F000FB68591E7B685B685B00B1FBF3F3591CF5
:102A000040F6FC730B40002B0AD0FB68591E7B6814
:102A10005B685B00B1FBF3F30133C3F30B0351E0DD
:102A200004234FE07B689B68002B11D1FB68581E84
:102A30007B6859680B465B000B44B0FBF3F3013332
:102A4000C3F30B03002B0CBF01230023DBB212E006
:102A5000FB68581E7B6859680B469B000B44990025
:102A60000B44B0FBF3F30133C3F30B03002B0CBF98
:102A700001230023DBB2002B01D0012322E07B687D
:102A80009B68002B0ED1FB68581E7B6859680B466B
:102A90005B000B44B0FBF3F30133C3F30B0343F4CC
:102AA00000430FE0FB68581E7B6859680B469B008B
:102AB0000B4499000B44B0FBF3F30133C3F30B0356
:102AC00043F44043796809681343CB617B681B6812
:102AD0001B6823F0C0017B68DA697B681B6A1A43B4
:102AE0007B681B680A431A607B681B689B6823F439
:102AF000034323F0FF037A6811697A68D2681143AF
:102B00007A6812680B4393607B681B68DB6823F06C
:102B1000FF017B685A697B689B691A437B681B6865
:102B20000A43DA607B681B681A687B681B6842F09E
:102B300001021A607B6800221A647B68202283F8F5
:102B40003D207B6800221A637B68002283F83E20C8
:102B5000002318461037BD4680BD00BFA086010087
:102B60007F841E00FF083D0083DE1B43D34D6210AF
:102B700080B588B002AFF8607A601A460B467B8158
:102B800013463B81FFF74CFB7861FB6893F83D30BF
:102B9000DBB2202B40F0E0807B69009319230122F7
:102BA0007049F86800F092FA0346002B01D0022326
:102BB000D3E0FB6893F83C30012B01D10223CCE039
:102BC000FB68012283F83C20FB681B681B6803F04C
:102BD0000103012B07D0FB681B681A68FB681B68A0
:102BE00042F001021A60FB681B681A68FB681B68E8
:102BF00022F400621A60FB68212283F83D20FB6802
:102C0000102283F83E20FB6800221A64FB687A6871
:102C10005A62FB683A895A85FB685B8D9AB2FB68F9
:102C20001A85FB68504ADA6279897B693A6AF868E2
:102C300000F0CAF90346002B01D001238DE00023E8
:102C40003B61FB681B685B693B61FB681B689B69B8
:102C50003B613B6966E07A69396AF86800F00CFB11
:102C60000346002B0DD0FB681B6C042B07D1FB68BF
:102C70001B681A68FB681B6842F400721A60012323
:102C80006BE0FB685B6A1A78FB681B681A61FB687B
:102C90005B6A5A1CFB685A62FB685B8D9BB2013B06
:102CA0009AB2FB685A85FB681B8D013B9AB2FB68A0
:102CB0001A85FB681B685B6903F00403042B1BD1B6
:102CC000FB681B8D002B17D0FB685B6A1A78FB68CA
:102CD0001B681A61FB685B6A5A1CFB685A62FB68D6
:102CE0005B8D9BB2013B9AB2FB685A85FB681B8DDA
:102CF000013B9AB2FB681A857A69396AF86800F074
:102D0000FCFA0346002B0DD0FB681B6C042B07D18B
:102D1000FB681B681A68FB681B6842F400721A6043
:102D200001231AE0FB681B8D002B94D1FB681B6804
:102D30001A68FB681B6842F400721A60FB68202264
:102D400083F83D20FB68002283F83E20FB680022C8
:102D500083F83C20002300E0022318461837BD46C4
:102D600080BD00BF020010000000FFFF80B58AB0E8
:102D700002AFF8607A603B600B467B81FFF750FA48
:102D8000F8610123BB61FB6893F83D30DBB2202B77
:102D900040F01181FB690093192301228849F868EA
:102DA00000F094F90346002B01D0022304E1FB68F4
:102DB00093F83C30012B01D10223FDE0FB68012296
:102DC00083F83C20FB681B681B6803F00103012BA0
:102DD00007D0FB681B681A68FB681B6842F0010299
:102DE0001A60FB681B681A68FB681B6822F40062A3
:102DF0001A60FB68242283F83D20FB6800221A64D5
:102E0000FB68704ADA62FB681B681A68FB681B681B
:102E100042F480721A60FB6900933B6800224FF015
:102E20000111F86800F052F90346002B0DD0FB6841
:102E30001B681B6803F48073B3F5807F03D1FB68C4
:102E40004FF400721A640323B6E07B89DBB21A46A2
:102E5000FB681B6802F0FE021A61FFF7E1F9F861F6
:102E6000FB681B685B6903F00203022B0CBF0123A4
:102E70000023DBB2FB75FB681B685B6903F48063AE
:102E8000B3F5806F0CBF01230023DBB2BB7525E0D7
:102E9000FFF7C6F90246FB69D31A3A689A4202D391
:102EA0003B68002B03D1FB68A02283F83D20FB6820
:102EB0001B685B6903F00203022B0CBF0123002394
:102EC000DBB2FB75FB681B685B6903F48063B3F5D9
:102ED000806F0CBF01230023DBB2BB75FB6893F846
:102EE0003D30DBB2A02B05D0FB7D002B02D1BB7D9A
:102EF000002BCDD0FB68202283F83D20FB681B68A7
:102F00005B6903F00203022B29D1FB681B681A6876
:102F1000FB681B6842F400721A6000233B61FB6887
:102F20001B685B693B61FB681B689B693B613B6994
:102F3000FB690093192301222149F86800F0C6F8C3
:102F40000346002B01D0012336E0FB68202283F8E2
:102F50003D20FB68002283F83C2000232CE0FB6826
:102F60001B681A68FB681B6842F400721A60FB68F1
:102F70001B686FF480625A61FB6900931923012278
:102F80000F49F86800F0A2F80346002B01D0012396
:102F900012E0BB690133BB61BA697B689A42FFF4F6
:102FA00032AFFB68202283F83D20FB68002283F8C3
:102FB0003C20012300E0022318462037BD4680BD97
:102FC000020010000000FFFF80B588B002AFF8607B
:102FD0007A603B600B467B81FB68DB6A7B617B69C7
:102FE000082B06D07B69012B03D07B6913F5803F4A
:102FF00008D1FB681B681A68FB681B6842F4807282
:103000001A600BE0FB681B6B122B07D1FB681B6877
:103010001A68FB681B6842F480721A603B68009370
:103020007B6800224FF00111F86800F04FF803466A
:10303000002B0DD0FB681B681B6803F48073B3F58D
:10304000807F03D1FB684FF400721A64032335E0DC
:10305000FB681B69B3F5804F08D17B89DBB21A4648
:10306000FB681B6802F0FE021A611BE07B89DB1122
:10307000DBB203F00603DBB263F00F03DAB2FB68E6
:103080001B681A613B687A680E49F86800F075F8A9
:103090000346002B01D0012310E07B89DAB2FB68E4
:1030A0001B681A613B687A680749F86800F065F8A0
:1030B0000346002B01D0012300E0002318461837F7
:1030C000BD4680BD080001000200010080B584B04B
:1030D00000AFF860B9603B601346FB7125E03B68C8
:1030E000B3F1FF3F21D0FFF79BF80246BB69D31A2B
:1030F0003A689A4202D33B68002B16D1FB68002243
:103100001A63FB68202283F83D20FB68002283F8C5
:103110003E20FB681B6C43F02002FB681A64FB68CE
:10312000002283F83C20012323E0BB681B0CDBB2A8
:10313000012B0DD1FB681B685B69DA43BB68134048
:103140009BB2002B0CBF01230023DBB21A460CE01C
:10315000FB681B689B69DA43BB6813409BB2002B7A
:103160000CBF01230023DBB21A46FB799A42B6D08A
:10317000002318461037BD4680BD80B584B000AF2F
:10318000F860B9607A603B6051E0FB681B685B697E
:1031900003F48063B3F5806F23D1FB681B681A6862
:1031A000FB681B6842F400721A60FB681B686FF4CE
:1031B00080625A61FB6800221A63FB68202283F850
:1031C0003D20FB68002283F83E20FB681B6C43F027
:1031D0000402FB681A64FB68002283F83C20012388
:1031E00046E07B68B3F1FF3F21D0FFF719F80246B4
:1031F0003B68D31A7A689A4202D37B68002B16D1B7
:10320000FB6800221A63FB68202283F83D20FB68DC
:10321000002283F83E20FB681B6C43F02002FB6811
:103220001A64FB68002283F83C20012320E0BB687D
:103230001B0CDBB2012B0CD1FB681B685B69DA430A
:10324000BB6813409BB2002B14BF01230023DBB2E9
:103250000BE0FB681B689B69DA43BB6813409BB2B9
:10326000002B14BF01230023DBB2002B8DD10023E0
:1032700018461037BD4680BD80B584B000AFF860F9
:10328000B9607A602DE0F86800F078F80346002B0A
:1032900001D001232DE0BB68B3F1FF3F21D0FEF741
:1032A000BFFF02467B68D31ABA689A4202D3BB6852
:1032B000002B16D1FB6800221A63FB68202283F8DA
:1032C0003D20FB68002283F83E20FB681B6C43F026
:1032D0002002FB681A64FB68002283F83C2001236B
:1032E00007E0FB681B685B6903F08003802BCAD191
:1032F000002318461037BD4680BD80B584B000AFAE
:10330000F860B9607A602DE0F86800F037F803469D
:10331000002B01D001232DE0BB68B3F1FF3F21D08A
:10332000FEF77EFF02467B68D31ABA689A4202D340
:10333000BB68002B16D1FB6800221A63FB682022B1
:1033400083F83D20FB68002283F83E20FB681B6C5D
:1033500043F02002FB681A64FB68002283F83C20DB
:10336000012307E0FB681B685B6903F00403042B7F
:10337000CAD1002318461037BD4680BD80B483B043
:1033800000AF78607B681B685B6903F48063B3F50A
:10339000806F1BD17B681B686FF480625A617B6809
:1033A00000221A637B68202283F83D207B6800227C
:1033B00083F83E207B681B6C43F004027B681A6430
:1033C0007B68002283F83C20012300E0002318469C
:1033D0000C37BD4680BC704780B586B000AF7860C2
:1033E0007B68002B01D1012372E27B681B6803F02C
:1033F0000103002B00F08780924B5B6803F00C0305
:10340000042B0CD08F4B5B6803F00C03082B12D1FC
:103410008C4B5B6803F48033B3F5803F0BD1894B51
:103420001B6803F40033002B6CD07B685B68002BB7
:1034300068D101234CE27B685B68B3F5803F06D11D
:10344000804B1B687F4A43F4803313602EE07B6817
:103450005B68002B0CD17B4B1B687A4A23F48033CA
:103460001360784B1B68774A23F4802313601DE0B8
:103470007B685B68B3F5A02F0CD1724B1B68714A57
:1034800043F4802313606F4B1B686E4A43F4803310
:1034900013600BE06B4B1B686A4A23F480331360A4
:1034A000684B1B68674A23F4802313607B685B6862
:1034B000002B13D0FEF7B4FE386108E0FEF7B0FE33
:1034C00002463B69D31A642B01D9032300E25D4B0A
:1034D0001B6803F40033002BF0D014E0FEF7A0FECD
:1034E000386108E0FEF79CFE02463B69D31A642B64
:1034F00001D90323ECE1534B1B6803F40033002B89
:10350000F0D100E000BF7B681B6803F00203002BD2
:1035100063D04C4B5B6803F00C03002B0BD0494B82
:103520005B6803F00C03082B1CD1464B5B6803F46B
:103530008033002B16D1434B1B6803F00203002B92
:1035400005D07B681B69012B01D00123C0E13D4BF5
:103550001B6823F0F8027B685B69DB003949134381
:103560000B603AE07B681B69002B20D0364B0122B0
:103570001A60FEF755FE386108E0FEF751FE02467C
:103580003B69D31A022B01D90323A1E12D4B1B6800
:1035900003F00203002BF0D02A4B1B6823F0F80243
:1035A0007B685B69DB00274913430B6015E0264B02
:1035B00000221A60FEF734FE386108E0FEF730FEA4
:1035C00002463B69D31A022B01D9032380E11D4B2C
:1035D0001B6803F00203002BF0D17B681B6803F02B
:1035E0000803002B3AD07B689B69002B19D0174B3E
:1035F00001221A60FEF714FE386108E0FEF710FEA3
:1036000002463B69D31A022B01D9032360E10D4B1B
:103610005B6A03F00203002BF0D0012000F0D8FA1F
:103620001CE00A4B00221A60FEF7FAFD38610FE039
:10363000FEF7F6FD02463B69D31A022B08D9032395
:1036400046E100BF001002400000424280044242B6
:10365000924B5B6A03F00203002BE9D17B681B6885
:1036600003F00403002B00F0A6800023FB758B4BB6
:10367000DB6903F08053002B0DD1884BDB69874A4F
:1036800043F08053D361854BDB6903F08053BB600B
:10369000BB680123FB75824B1B6803F48073002B0E
:1036A00018D17F4B1B687E4A43F480731360FEF78A
:1036B000B7FD386108E0FEF7B3FD02463B69D31A57
:1036C000642B01D9032303E1754B1B6803F480735A
:1036D000002BF0D07B68DB68012B06D16F4B1B6A97
:1036E0006E4A43F0010313622DE07B68DB68002B18
:1036F0000CD16A4B1B6A694A23F001031362674BC2
:103700001B6A664A23F0040313621CE07B68DB68D3
:10371000052B0CD1614B1B6A604A43F00403136212
:103720005E4B1B6A5D4A43F0010313620BE05B4B87
:103730001B6A5A4A23F001031362584B1B6A574A0B
:1037400023F0040313627B68DB68002B15D0FEF7BF
:1037500067FD38610AE0FEF763FD02463B69D31A54
:1037600041F28832934201D90323B1E04B4B1B6AEB
:1037700003F00203002BEED014E0FEF751FD386198
:103780000AE0FEF74DFD02463B69D31A41F288324A
:10379000934201D903239BE0404B1B6A03F00203D1
:1037A000002BEED1FB7D012B05D13C4BDB693B4A65
:1037B00023F08053D3617B68DB69002B00F08780A6
:1037C000364B5B6803F00C03082B61D07B68DB6928
:1037D000022B46D1334B00221A60FEF721FD3861DF
:1037E00008E0FEF71DFD02463B69D31A022B01D902
:1037F00003236DE0294B1B6803F00073002BF0D10D
:103800007B681B6AB3F5803F08D1244B5B6823F4C7
:1038100000327B689B68214913434B601F4B5B68F8
:1038200023F474127B68196A7B685B6A0B431B493B
:1038300013434B601B4B01221A60FEF7F1FC386109
:1038400008E0FEF7EDFC02463B69D31A022B01D9D2
:1038500003233DE0114B1B6803F00073002BF0D0F5
:1038600035E0104B00221A60FEF7DAFC386108E000
:10387000FEF7D6FC02463B69D31A022B01D903237B
:1038800026E0064B1B6803F00073002BF0D11EE00E
:103890007B68DB69012B07D1012319E0001002408E
:1038A00000700040600042420B4B5B68FB60FB68AD
:1038B00003F480327B681B6A9A4206D1FB6803F4EA
:1038C00070127B685B6A9A4201D0012300E00023FA
:1038D00018461837BD4680BD0010024080B584B040
:1038E00000AF786039607B68002B01D10123D0E004
:1038F0006A4B1B6803F007033A689A4210D9674B7A
:103900001B6823F0070265493B6813430B60634B58
:103910001B6803F007033A689A4201D00123B8E01C
:103920007B681B6803F00203002B20D07B681B68B8
:1039300003F00403002B05D0594B5B68584A43F44D
:10394000E06353607B681B6803F00803002B05D01D
:10395000534B5B68524A43F460535360504B5B686F
:1039600023F0F0027B689B684D4913434B607B68F2
:103970001B6803F00103002B40D07B685B68012BC0
:1039800007D1474B1B6803F40033002B15D10123EB
:103990007FE07B685B68022B07D1414B1B6803F01B
:1039A0000073002B09D1012373E03D4B1B6803F02A
:1039B0000203002B01D101236BE0394B5B6823F03C
:1039C00003027B685B68364913434B60FEF728FCB3
:1039D000F8600AE0FEF724FC0246FB68D31A41F2C5
:1039E0008832934201D9032353E02D4B5B6803F0E7
:1039F0000C027B685B689B009A42EBD1274B1B68EB
:103A000003F007033A689A4210D2244B1B6823F054
:103A1000070222493B6813430B60204B1B6803F0ED
:103A200007033A689A4201D0012332E07B681B68A1
:103A300003F00403002B08D0194B5B6823F4E06209
:103A40007B68DB68164913434B607B681B6803F097
:103A50000803002B09D0124B5B6823F460527B688B
:103A60001B69DB000E4913434B6000F021F802464E
:103A70000B4B5B681B0903F00F030A49CB5C22FA6E
:103A800003F3094A1360094B1B681846FEF786FBCF
:103A9000002318461037BD4680BD00BF00200240FD
:103AA00000100240B4AA00081400002018000020F2
:103AB00090B48AB000AF294B3C1D0FCB84E80F00B7
:103AC00040F201233B800023FB610023BB61002304
:103AD0007B6200237B6100233B62214B5B68FB61BF
:103AE000FB6903F00C03042B02D0082B03D02BE05E
:103AF0001C4B3B622BE0FB699B0C03F00F0328334C
:103B00003B4413F8243C7B61FB6903F48033002BB6
:103B100012D0134B5B685B0C03F0010328333B446A
:103B200013F8283CBB617B690E4A03FB02F2BB69B8
:103B3000B2FBF3F37B6204E07B690B4A02FB03F305
:103B40007B627B6A3B6202E0064B3B6200BF3B6AE2
:103B500018462837BD4690BC704700BFFC89000856
:103B60000010024000127A0000093D0080B400AF4E
:103B7000024B1B681846BD4680BC704714000020ED
:103B800080B500AFFFF7F2FF0246054B5B681B0AEA
:103B900003F007030349CB5C22FA03F3184680BD08
:103BA00000100240C4AA000880B500AFFFF7DEFF96
:103BB0000246054B5B68DB0A03F007030349CB5C55
:103BC00022FA03F3184680BD00100240C4AA000880
:103BD00080B485B000AF78600A4B1B680A4AA2FB2C
:103BE00003235B0A7A6802FB03F3FB6000BFFB68F8
:103BF0005A1EFA60002BF9D100BF00BF1437BD4632
:103C000080BC704714000020D34D621080B582B094
:103C100000AF78607B68002B01D101233FE07B6817
:103C200093F83D30DBB2002B06D17B68002283F88D
:103C30003C207868FEF788F87B68242283F83D20D2
:103C40007B681B68DA687B681B6822F40052DA60C4
:103C5000786800F0B3FB7B681B681A697B681B6897
:103C600022F490421A617B681B685A697B681B6862
:103C700022F02A025A617B681B68DA687B681B683D
:103C800042F40052DA607B6800221A647B682022CA
:103C900083F83D207B68202283F83E2000231846CD
:103CA0000837BD4680BD80B584B000AFF860B9600C
:103CB0001346FB80FB6893F83E30DBB2202B1DD10E
:103CC000BB68002B02D0FB88002B01D1012316E03A
:103CD000FB6893F83C30012B01D102230FE0FB6815
:103CE000012283F83C20FB6800221A63FB881A46F5
:103CF000B968F86800F0D8F9034600E002231846D6
:103D00001037BD4680BD000080B58AB000AF786036
:103D10007B681B681B687B627B681B68DB683B6297
:103D20007B681B685B69FB610023BB6100237B61CF
:103D30007B6A03F00F03BB61BB69002B0DD17B6A6B
:103D400003F02003002B08D03B6A03F02003002B74
:103D500003D0786800F088FA7BE1BB69002B00F0A3
:103D6000B180FB6903F00103002B05D13B6A03F42A
:103D70009073002B00F0A6807B6A03F00103002BF8
:103D80000AD03B6A03F48073002B05D07B681B6C60
:103D900043F001027B681A647B6A03F00403002B82
:103DA0000AD0FB6903F00103002B05D07B681B6C74
:103DB00043F002027B681A647B6A03F00203002B63
:103DC0000AD0FB6903F00103002B05D07B681B6C54
:103DD00043F004027B681A647B6A03F00803002B3B
:103DE0000FD03B6A03F02003002B04D1FB6903F0E2
:103DF0000103002B05D07B681B6C43F008027B6835
:103E00001A647B681B6C002B00F01E817B6A03F038
:103E10002003002B07D03B6A03F02003002B02D0C5
:103E2000786800F021FA7B681B685B6903F0400347
:103E3000002B14BF01230023DBB27B617B681B6C6A
:103E400003F00803002B02D17B69002B31D0786886
:103E500000F063F97B681B685B6903F04003002B8B
:103E600023D07B681B685A697B681B6822F040027C
:103E70005A617B689B6B002B13D07B689B6B764AE7
:103E80005A637B689B6B1846FEF71CFB0346002BAE
:103E900016D07B689B6B5B6B7A68926B1046984779
:103EA0000EE0786800F0ECF80AE0786800F0E8F8D6
:103EB00006E0786800F0E4F87B6800221A64C3E04A
:103EC00000BFC1E07B681B6B012B40F0A1807B6AC7
:103ED00003F01003002B00F09B803B6A03F01003FB
:103EE000002B00F095800023FB607B681B681B683B
:103EF000FB607B681B685B68FB60FB687B681B681A
:103F00005B6903F04003002B4ED07B689B6B1B6802
:103F10005B683B823B8A002B00F098807B689B8D1E
:103F20003A8A9A4280F092807B683A8ADA857B6886
:103F30009B6B9B69202B2BD07B681B68DA687B68A6
:103F40001B6822F48072DA607B681B685A697B68A0
:103F50001B6822F001025A617B681B685A697B6802
:103F60001B6822F040025A617B68202283F83E20C1
:103F70007B6800221A637B681B68DA687B681B68B1
:103F800022F01002DA607B689B6B1846FEF75FFA3E
:103F90007B689A8D7B68DB8D9BB2D31A9BB21946E6
:103FA000786800F076F851E07B689A8D7B68DB8D4D
:103FB0009BB2D31A7B827B68DB8D9BB2002B47D0F0
:103FC0007B8A002B44D07B681B68DA687B681B689F
:103FD00022F49072DA607B681B685A697B681B6800
:103FE00022F001025A617B68202283F83E207B6820
:103FF00000221A637B681B68DA687B681B6822F002
:104000001002DA607B8A1946786800F042F81FE0F7
:104010007B6A03F08003002B08D03B6A03F0800327
:10402000002B03D0786800F0B8F812E07B6A03F048
:104030004003002B0DD03B6A03F04003002B08D057
:10404000786800F0F9F804E000BF02E000BF00E08B
:1040500000BF2837BD4680BD7341000880B483B0DF
:1040600000AF786000BF0C37BD4680BC704780B49D
:1040700083B000AF786000BF0C37BD4680BC70478E
:1040800080B483B000AF786000BF0C37BD4680BC01
:10409000704780B483B000AF78600B467B8000BF70
:1040A0000C37BD4680BC704780B485B000AFF86067
:1040B000B9601346FB80FB68BA689A62FB68FA88AD
:1040C0009A85FB68FA88DA85FB6800221A64FB6827
:1040D000222283F83E20FB68002283F83C20FB6804
:1040E0001B68DA68FB681B6842F48072DA60FB6860
:1040F0001B685A69FB681B6842F001025A61FB6841
:104100001B68DA68FB681B6842F02002DA60002353
:1041100018461437BD4680BC704780B483B000AFEA
:1041200078607B681B68DA687B681B6822F4907291
:10413000DA607B681B685A697B681B6822F00102A1
:104140005A617B681B6B012B07D17B681B68DA689F
:104150007B681B6822F01002DA607B68202283F8FB
:104160003E207B6800221A6300BF0C37BD4680BC2E
:10417000704780B584B000AF78607B685B6AFB6095
:10418000FB680022DA85FB680022DA84F868FFF712
:1041900077FF00BF1037BD4680BD80B485B000AF4B
:1041A00078607B6893F83D30DBB2212B3ED17B6891
:1041B0009B68B3F5805F14D17B681B69002B10D11D
:1041C0007B681B6AFB60FB681B881A467B681B6860
:1041D000C2F308025A607B681B6A9A1C7B681A62E9
:1041E00008E07B681B6A591C7A6811621A787B6840
:1041F0001B685A607B68DB8C9BB2013B9BB27A6880
:104200001946D184002B0FD17B681B68DA687B6864
:104210001B6822F08002DA607B681B68DA687B68C2
:104220001B6842F04002DA60002300E002231846D7
:104230001437BD4680BC704780B582B000AF78604F
:104240007B681B68DA687B681B6822F04002DA60D2
:104250007B68202283F83D207868FFF7FFFE00236B
:1042600018460837BD4680BD80B586B000AF78607F
:104270007B6893F83E30DBB2222B40F099807B685C
:104280009B68B3F5805F17D17B681B69002B13D146
:1042900000237B617B689B6A3B617B681B685B6872
:1042A0009BB2C3F308039AB23B691A807B689B6A8E
:1042B0009A1C7B689A6226E07B689B6A7B6100237C
:1042C0003B617B689B68B3F5805F07D07B689B6828
:1042D000002B0AD17B681B69002B06D17B681B6809
:1042E0005B68DAB27B691A7008E07B681B685B6800
:1042F000DBB203F07F03DAB27B691A707B689B6ADA
:104300005A1C7B689A627B68DB8D9BB2013B9BB237
:104310007A681946D185002B48D17B681B68DA681A
:104320007B681B6822F02002DA607B681B68DA6811
:104330007B681B6822F48072DA607B681B685A69AC
:104340007B681B6822F001025A617B68202283F897
:104350003E207B681B6B012B23D17B6800221A63F4
:104360007B681B68DA687B681B6822F01002DA60E1
:104370007B681B681B6803F01003102B0AD1002315
:10438000FB607B681B681B68FB607B681B685B6865
:10439000FB60FB687B689B8D19467868FFF779FEA8
:1043A00002E07868FFF763FE002302E0002300E0EC
:1043B000022318461837BD4680BD000080B584B082
:1043C00000AF78607B681B681B6923F440517B68F1
:1043D000DA687B681B680A431A617B689A687B68A5
:1043E0001B691A437B685B691343BB607B681B686E
:1043F000DB6823F4B05323F00C037A681268B968C1
:104400000B43D3607B681B685B6923F440717B6856
:104410009A697B681B680A435A617B681B682C4A4F
:10442000934203D1FFF7C0FBF86002E0FFF7A8FB5F
:10443000F860FA6813469B0013449A001A447B689C
:104440005B689B00B2FBF3F3224AA2FB03235B09E8
:104450001901FA6813469B0013449A001A447B68BA
:104460005B689B00B2FBF3F21A4BA3FB02035B09F0
:10447000642000FB03F3D31A1B013233154AA2FB5D
:1044800003235B0903F0F0031944FA6813469B0009
:1044900013449A001A447B685B689B00B2FBF3F2FA
:1044A0000C4BA3FB02035B09642000FB03F3D31A4C
:1044B0001B013233074AA2FB03235B0903F00F02FF
:1044C0007B681B680A449A6000BF1037BD4680BDF8
:1044D000003801401F85EB51014B1868704700BF41
:1044E0002000002070B500260C4D0D4C641BA4105C
:1044F000A64209D104F02EFA00260A4D0A4C641B8C
:10450000A410A64205D170BD55F8043B984701366A
:10451000EEE755F8043B98470136F2E7C8AF0008CC
:10452000C8AF0008C8AF0008CCAF0008024B014676
:10453000186800F073B800BF200000200346024452
:10454000934200D1704703F8011BF9E738B50546DF
:10455000002940D051F8043C0C1F002BB8BFE418D0
:1045600002F01EFE1C4A136833B9636014602846CB
:10457000BDE8384002F01ABEA34208D920682118CD
:104580008B4201BF19685B6809182160EDE71A4684
:104590005B680BB1A342FAD911685018A0420BD145
:1045A00020680144501883421160E0D118685B68AC
:1045B000014411605360DAE702D90C232B60D6E77F
:1045C000206821188B4201BF19685B6809182160B7
:1045D00063605460CBE738BD4808002070B50E4ECC
:1045E0000C463168054611B900F0ECFC30602146FC
:1045F000284600F0E7FC431C0AD0C41C24F0030446
:10460000A04207D0211A284600F0DCFC013001D17D
:104610004FF0FF34204670BD4C0800202DE9F041DA
:10462000CD1C25F0030508350C2D38BF0C25002DB9
:10463000074601DBA94205D90C2300263B60304622
:10464000BDE8F0812E4E02F0ABFD33681C4634BB52
:1046500029463846FFF7C2FF431C04464DD1346853
:104660002646002E40D123683146384604EB030825
:1046700000F0A8FC80453AD1216803356D1A25F079
:10468000030508350C2D38BF0C2538462946FFF7A1
:10469000A5FF01302BD023682B4423600EE0226855
:1046A000521B1ED40B2A16D96119A342256018BFCC
:1046B0005960636808BF316062514B60384604F14D
:1046C0000B0602F073FD26F00706231DF21AB6D082
:1046D0009B1BA350B3E76268A3420CBF32605A60D1
:1046E000ECE723466468B2E734467668B9E70C2302
:1046F00038463B6002F05AFDA1E72560DEE700BFC7
:1047000048080020002B2DE9F0471F46BBBF03F1EE
:1047100000431F4600232D2388B01446129A109D93
:104720001370149BDDF84CA023F02008B8F1460F5D
:1047300005D0B8F1450F00D10135022300E0032375
:1047400007AA049206AACDE902A2CDE900352246C5
:104750003B4601F08DFBB8F1470F064602D1119B95
:10476000DB0722D5B8F1460F06EB050910D13378E7
:10477000302B0AD10022002320463946FCF71EF9CF
:1047800018B9C5F10105CAF80050DAF800309944AB
:104790000022002320463946FCF710F908B1CDF875
:1047A0001C903022079B4B4507D33046079B159A38
:1047B0009B1B136008B0BDE8F087591C07911A7065
:1047C000F0E70346F7B5002903F8022BB6BF2D2208
:1047D0002B224942092942702BDD0DF10704A44622
:1047E0000A2791FBF7F60A46A64607FB1615632A29
:1047F00005F13005314604F1FF340EF8015CF0DCC0
:104800003031AEF1020504F8011C2946441C614513
:104810000AD30DF10902A2EB0E02654588BF002202
:104820001344181A03B0F0BD11F8012B04F8012F3E
:10483000EDE7302330318370C170031DF1E70000D4
:104840002DE9F04F91B00C46DDF8688016461F4602
:10485000054602F073FC036818460993FBF782FCD7
:1048600000230E93D8F800300A90073323F0070393
:1048700003F1080294F81890D4F800B0C8F80020AA
:10488000D3E90023C4E91223D4E9128A2AF00043B1
:104890000B934FF0FF3240469C4B0B99FCF7C0F84E
:1048A00070BB4FF0FF324046984B0B99FCF79AF8DB
:1048B00030BB0022002340465146FCF789F810B176
:1048C0002D2384F84330924B9248B9F1470F94BF9F
:1048D0009846804603234FF0000A23612BF004031F
:1048E000236033462146284600970FAA00F0D4F9EA
:1048F000013040F090804FF0FF3011B0BDE8F08FF4
:104900004246534640465146FCF78AF848B1BAF150
:10491000000FB8BF2D238048B8BF84F843307F4BC9
:10492000D3E7636809F0DF015A1C42D106236360B4
:10493000002206920EAACDE904920DAA4BF48063E0
:1049400003920DF13302CDE90132236063684246E0
:104950000093284653460B91FFF7D4FE0B998046EF
:1049600047290D9908D1C81C02DB6368994240DDD4
:10497000A9F102095FFA89F9B9F1650F1FD84A4612
:10498000013904F150000D91FFF71BFF0E9A82468A
:104990001318012A236102DC2268D20701D50133F2
:1049A00023619DF83330002B9BD02D2384F84330B6
:1049B00097E74729BCD1002BBAD10123B7E7B9F15A
:1049C000660F18D1002963680BDD216113B92268D5
:1049D000D00702D501330B4423614FF0000AA165D3
:1049E000DFE713B92268D20701D50233F4E70123C8
:1049F000F2E74FF067090E9B994205DB23682161BE
:104A0000D807EAD54B1CE7E70029CCBF0122C1F14A
:104A100002021344E0E723685A0507D4236942469B
:104A200031462846B84701302BD164E7B9F1650F0C
:104A300040F2DD80D4E9120100220023FBF7BEFF23
:104A4000002833D0012331462846354AB847013083
:104A50003FF451AFDDE90D239A4202DB2368D8070A
:104A60000FD5DDE9092331462846B84701303FF428
:104A700042AF4FF0000804F11A090E9B013B434579
:104A800009DC23689B0700F10281E0680F9B9842D4
:104A9000B8BF184631E701234A4631462846B84791
:104AA00001303FF428AF08F10108E6E70D9B002B29
:104AB00038DC012331462846194AB84701303FF413
:104AC0001AAFDDE90D23134302D12368D907D8D5E6
:104AD000DDE9092331462846B84701303FF40BAFE2
:104AE0004FF0000904F11A0A0D9B5B424B4501DCB3
:104AF0000E9B94E70123524631462846B8470130C1
:104B00003FF4F9AE09F10109EEE700BFFFFFEF7FC7
:104B1000D0AA0008D4AA0008DCAA0008D8AA000875
:104B2000E0AA00080E9AA36D9A42A8BF1A46002A6E
:104B3000914637DC4FF0000B29EAE97904F11A02BB
:104B4000D4F858A0AAEB09035B4533DCDDE90D235B
:104B50009A423BDB2368DA0738D40E9B0D99A3EB0E
:104B60000A02A3EB01099145A8BF9146B9F1000FD4
:104B700034DC4FF0000829EAE97904F11A0ADDE98A
:104B80000D239B1AA3EB090343457FF77AAF01235B
:104B9000524631462846B84701303FF4ACAE08F1E2
:104BA0000108ECE71346314642462846B847013033
:104BB000C0D1A0E60123314628460B92B847013008
:104BC0003FF499AE0B9A0BF1010BB9E73146DDE9E1
:104BD00009232846B8470130BFD18CE64B46314601
:104BE000284608EB0A02B8470130C2D183E60E9A84
:104BF000012A01DCDB0737D501234246314628462E
:104C0000B84701303FF477AEDDE909233146284645
:104C1000B84701303FF46FAED4E9120100220023FF
:104C2000FBF7CCFED8B90E9B08F10102013B3146DF
:104C30002846B84701300ED15DE601234A46314689
:104C40002846B84701303FF456AE08F101080E9BE4
:104C5000013B4345F1DC534604F15002E0E64FF0DE
:104C6000000804F11A09F2E701234246DFE70123B5
:104C70004A4631462846B84701303FF43CAE08F179
:104C80000108E3680F995B1A4345F0DCFDE64FF03D
:104C9000000804F11909F4E72DE9F0471646994692
:104CA0008A680B6907469342B8BF1346336091F890
:104CB00043200C46DDF820800AB1013333602368BD
:104CC000990642BF336802333360256815F0060544
:104CD00006D104F1190AE36832689B1AAB4228DC5A
:104CE00094F84320131E226818BF012392062DD486
:104CF0004946384604F14302C047013020D02368BA
:104D0000E56803F00603042B18BF002532684FF056
:104D10000006A36808BFAD1A226908BF25EAE57539
:104D20009342C4BF9B1AED181A34B5421AD1002021
:104D300008E00123524649463846C047013003D1B6
:104D40004FF0FF30BDE8F0870135C4E73020E118AF
:104D500081F843005A1C94F845102244023382F82B
:104D60004310C5E70123224649463846C047013073
:104D7000E6D00136D9E700002DE9FF470F7E9146C6
:104D8000782F80460C469A460C9D01F1430207D8C5
:104D9000622F0AD8002F00F0D980582F00F0A4808D
:104DA00004F1420584F842703AE0A7F16303152B41
:104DB000F6D801A151F823F0114E0008254E000845
:104DC000A14D0008A14D0008A14D0008A14D00080B
:104DD000254E0008A14D0008A14D0008A14D000876
:104DE000A14D0008334F0008554E0008154F00082C
:104DF000A14D0008A14D0008554F0008A14D000825
:104E0000554E0008A14D0008A14D00081D4F000897
:104E10002B681A1D1B682A6004F1420584F8423091
:104E20000123A4E020682968060601F104030AD5DD
:104E30000E682B60002E03DA2D23764284F843306F
:104E40000A235E4819E00E6810F0400F2B6018BF6F
:104E500036B2EFE72B682068191D2960010601D5DD
:104E60001E6802E04606FBD51E886F2F0CBF082384
:104E70000A235248002184F843106568002DA8BF1A
:104E80002168A560A4BF21F0040121600EB9002DA6
:104E90004DD01546B6FBF3F103FB1167C75D05F86E
:104EA000017D3746BB420E46F4D9082B0BD123684F
:104EB000DE0708D5236961689942DEBF302305F813
:104EC000013C05F1FF35521B22614B46214640460D
:104ED000CDF800A003AAFFF7DFFE01304CD14FF060
:104EE000FF3004B0BDE8F087344881F84570296888
:104EF000236851F8046B29601D0614D5DF0744BFF1
:104F000043F0200323601EB9236823F020032360AD
:104F10001023AFE7236843F0200323607823284859
:104F200084F84530E3E7590648BFB6B2E6E71546D0
:104F3000BBE72B682668181D6169286035061B6869
:104F400001D5196002E07006FBD5198000231546D3
:104F50002361BAE72B6800211A1D2A601D68626868
:104F6000284602F001F908B1401B606063682361C4
:104F7000002384F84330A8E72A464946404623697F
:104F8000D0470130ABD023689B0713D4E068039B64
:104F90009842B8BF1846A4E7012332464946404626
:104FA000D04701309BD00135E36803995B1AAB42CF
:104FB000F2DCEBE7002504F11906F5E7E2AA0008A8
:104FC000F3AA000838B50023054D044608462B60B7
:104FD000FDF76CF8431C02D12B6803B1236038BD88
:104FE000500800200EB46FF0004100B59CB01DAB1E
:104FF00002900690079104910848094953F8042B40
:105000000591006802A9019302F0FEFD0022029BB7
:105010001A701CB05DF804EB03B07047200000204C
:105020000802FFFF034611F8012B03F8012B002AA9
:10503000F9D170472DE9F0410F46904602F02CFC63
:1050400004460D46B8F1000F11D0C7F30A53C3F15F
:105050006B03002B0BDD00241B0503F17F5505F5C9
:10506000401522462B46FBF741FA04460D462046E2
:105070002946BDE8F08100002DE9F04F9B46002352
:105080009FB01A939E4B82461F680E463846159273
:10509000FBF768F84FF0000804464FF00009199636
:1050A000199B1A782B2A4CD03AD80D2A33D8082AC3
:1050B00033D8002A3DD000230A93199D2B78302B3A
:1050C00040F0AA806B7803F0DF03582B66D10A9B6F
:1050D000504601931AAB00938A4ACDF808B01BAB37
:1050E00019A901F02DFD10F00706044605D0062E83
:1050F00029D10023013519950A93159B002B40F007
:105100008A850A9BD3B1424609F1004310461946ED
:105110001FB0BDE8F08F202ACDD101331993BFE72E
:105120002D2AC8D101220A925A1C19925B78002BB1
:10513000C3D1159B1996002B40F06B8542464B4618
:10514000E4E70022EFE71A9A3AB135211CA802F0F1
:10515000A7FC50461A9902F06FF8013E042E06D8BB
:10516000DFE806F00A0314170A00DDE91C892107AD
:10517000C3D549F00049C0E71B9ADDE91C8302F260
:10518000334223F4801343EA0259F0E7DFF87891C1
:10519000EDE76FF000494FF0FF38E8E7199B5A1C24
:1051A00019925B78302BF9D0002BA6D001230793FE
:1051B000199B0A22089300239B46CDE905331998D1
:1051C0000578A5F13003D9B2092927D922463946F5
:1051D00002F078FF002833D000202A465C460346C0
:1051E0000490652A01D0452A14D11CB9079A0243BC
:1051F0009FD00024199E721C199272782B2A79D0A4
:105200002D2A00F083800027A2F13001092940F205
:105210008380199600259FE00023C8E7BBF1080FA3
:10522000D5BF0699059902FB013302FB013300F15A
:105230000100D4BF069305930BF1010B1990BEE753
:10524000199B1A1919921A5DBBF1000F36D05C46F2
:105250000490A2F13003092B12D90123C1E7199B55
:1052600001305A1C19925A78302AF8D0A2F1310331
:10527000082B00F2D584049000200446199B089363
:10528000303A00F1010313D004990519194404912F
:1052900023460A21AB4213D12318082B04F1010441
:1052A00004441BDC0A23069903FB01230693002315
:1052B000199A1846511C19915278CAE75846D3E7F3
:1052C000082B04DC069F4F4306970133E2E75F1C7F
:1052D000102FDEBF059F4F430597F6E7102CDFBF69
:1052E0000A23059903FB01230593E0E700230493B8
:1052F00001237BE70027B21C1992B27884E700BF34
:10530000E8AC000804AB00080000F07F0127F2E7DA
:10531000199A511C19915278302AF9D0A2F1310111
:1053200008293FF677AF4FF00A0EA2F1300C199A18
:105330000992199A511C19915278A2F13005092D40
:1053400035D9099D491B082944F61F6502DC6545CE
:10535000A8BF654607B16D42002C4CD107990143A7
:105360007FF4CBAE002B7FF4E4AE692A26D023DC99
:10537000492A23D04E2A7FF4DCAE9D4919A801F0BA
:105380002DFE00283FF4D5AE199B1B78282B2CD17D
:1053900098491CAA19A801F035FE052825D11D9BA6
:1053A000DDF8708043F0FF4949F4E009A5E60EFB03
:1053B0000C2CACF1300CBCE76E2ADCE78E4919A846
:1053C00001F00CFE00283FF4B4AE199B8B49013B61
:1053D00019A8199301F002FE10B9199B0133199312
:1053E0004FF00008DFF8189287E6864802F064FE66
:1053F0008046894681E6049BBBF1000F08BFA346A7
:10540000EB1A102C069826460793A8BF1026FAF729
:10541000F3FF092C8046894613DD7B4B03EBC60363
:1054200053E91223FBF762F8804605988946FAF79C
:10543000E3FF02460B4640464946FAF7A1FE804686
:1054400089460F2C36DC079B002B3FF456AE22DD3D
:10545000162B09DC6C49424601EBC3014B46D1E9EE
:105460000001FBF743F8C3E7079AC4F12503934211
:1054700020DB654DC4F10F0405EBC4014246D1E9C0
:1054800000014B46FBF732F8079B1C1B05EBC405DC
:10549000D5E90023E5E7079B16330BDB049B404669
:1054A0005D1B594B494603EBC505D5E90023FBF7C6
:1054B00047F99DE7079BA61B1E44002E74DD16F0DE
:1054C0000F030AD05049424601EBC301D1E9000164
:1054D0004B46FBF70BF88046894636F00F0652D054
:1054E000B6F59A7F27DD4FF0000BCDF810B0CDF860
:1054F00020B0CDF818B022234FF00008DFF800915B
:10550000CAF80030089B002B3FF4F7AD50461A99BB
:1055100001F092FE5046069901F08EFE5046049925
:1055200001F08AFE5046089901F086FE5946504621
:1055300001F082FEE1E5354B4046059300234946E4
:105540001F463611012E21DC0BB1804689462F4BB8
:10555000A9F1547903EBC7074246D7E900014B464E
:10556000FAF7C4FF264B0A460B40294980468B4276
:10557000B9D8A1F580118B4286BF4FF0FF38DFF814
:10558000949002F15479002305937FE0F20705D54A
:10559000059BD3E90023FAF7A9FF0123059A0137F8
:1055A000083276100592CDE7EDD0764216F00F0264
:1055B0000AD0154B404603EBC2034946D3E900230A
:1055C000FBF7BEF8804689463611DCD01F2E23DD5E
:1055D0004FF0000BCDF810B0CDF820B0CDF818B0DA
:1055E00022234FF000084FF00009CAF8003089E785
:1055F000DDAA000818AB0008D5AA00080BAC00080B
:105600000000F07F07AC000880AD000858AD00082E
:105610000000A07CFFFFEF7F16F0100318BF6A2385
:105620004046059349460023B04FF20704D5D7E919
:105630000023FAF75BFF0123761007F10807F4D186
:105640000BB180468946059BC3B1C9F30A52C2F12A
:105650006B03002B494611DD1F2B40F32781342BB0
:10566000D8BF4FF0FF334FF00008CFBF4FF05C7949
:10567000C2F14B0203FA02F202EA010900220023FE
:1056800040464946FBF79AF90028A1D1069B5A46A5
:10569000009350462346089901F036FE08900028F2
:1056A0003FF421AF049B4FF0000B5D1B079BCDF82F
:1056B00010B0002BB4BF2B4600230E93079B23EAA8
:1056C000E3731493089B5046596801F075FD0690EA
:1056D00000283FF410AF089B0C301A6903F10C014D
:1056E0000232920001F04EFD1CAB01931BAB009304
:1056F00042464B465046CDE90C8902F047F91A90D4
:1057000000283FF4F8AE0121504601F095FE034613
:10571000049000283FF4EFAE1B9D1C9A002DABBFF8
:105720000E9B149BEE185C1B059BA8BF149CA5EB5D
:10573000030515446E4B05F1FF35B8BF0E9E9D4223
:10574000C2F1360280F2C4805B1B1F2B4FF00107B1
:10575000A2EB030200F3B180002507FA03F30F93D5
:10576000B718059BBE4214441C443346A8BF3B46B1
:10577000A342A8BF2346002BC2BFFF1AE41AF61AA1
:105780000E9B002B17DD1A465046049901F012FFBC
:10579000049000283FF4AFAE01461A9A504601F03B
:1057A00061FE099000283FF4A6AE50461A9901F018
:1057B00043FD099B1A93002F00F38E80079B002B5B
:1057C00008DD5046149A069901F0F4FE0690002870
:1057D0003FF491AE002C08DD22465046069901F0B8
:1057E00043FF069000283FF486AE002E08DD3246C7
:1057F0005046049901F038FF049000283FF47BAE36
:105800005046069A1A9901F0BBFF834600283FF4E0
:1058100072AE0024C3680499C4600B9301F094FF36
:10582000A0426BDA0B9B53EA080340F09180C9F366
:105830001303002B40F08C8029F000431B0D1B0547
:10584000B3F1D66F40F28480DBF814301BB9DBF87B
:105850001030012B7CDD59460122504601F004FF37
:105860000499834601F070FF002871DD05994B46CD
:10587000204A002900F08C8002EA0901B1F1D66FBC
:1058800000F38680B1F15C7F7FF7AAAE40464946BF
:10589000194B0022FAF72AFE0B46034308BF2223C6
:1058A0008046894608BFCAF800302FE64FF0FF3225
:1058B00002FA03F303EA0808E0E6C5F17F4505F5BF
:1058C0007F0505F57B45E23507FA05F50F9747E7B4
:1058D000012300250F9343E73A4650461A9901F0F9
:1058E000C3FE1A9000287FF469AF04E630AB0008CD
:1058F00002FCFFFF0000F07F00005039CDF824903B
:1059000065D10B9AC9F313035AB3994A93422BD129
:10591000059B414603B34A46964B1340B3F1D46FFF
:105920004FF0FF321BD81B0DC3F16B0302FA03F3D8
:10593000994219D1904B099A9A4202D101313FF410
:10594000DAAD4FF000088B4B099A1A4002F5801926
:10595000059B002B9AD1D9E54FF0FF33E8E71346BA
:10596000E6E753EA080381D0E5B1099B1D42EFD079
:105970000B9B40464946059AC3B1FFF75BFB0246C5
:105980000B46DDE90C01FAF7FBFB80468946DFE7B1
:105990001340A3F580136FEA13594FF0FF386FEAF5
:1059A0000959D5E70F9B13EA080FE0E7FFF742FB21
:1059B00002460B46DDE90C01FAF7E0FB002200236A
:1059C00080468946FAF7FAFF0028C1D008E6584613
:1059D000049902F037F800224FF0804306460F4644
:1059E000FBF700F8002870D00B9B002B42D000265C
:1059F000624F624D099B23F000431B0D1B050F9363
:105A00000F9A5F4B9A4240F0C380099B4046A3F136
:105A10005479494601F040FF02460B46304639466C
:105A2000FAF764FD42464B46FAF7AAFB0B4651498A
:105A3000544A1940914280465DD90D9A4E4B9A4284
:105A400003D10C9B01333FF456AD4FF0FF38DFF824
:105A5000289150461A9901F0EFFB5046069901F043
:105A6000EBFB5046049901F0E7FB5946504601F024
:105A7000E3FB27E6B8F1000F19D1099BC3F3130329
:105A8000E3B90022304639463C4BFAF7A1FFC8B9CA
:105A90000022304639463C4BFAF728FD04460D46B5
:105AA00005F1004316941793DDE91667A2E7B8F1F4
:105AB000010F03D1099B002B3FF492AD0026002477
:105AC000324F96E70B9C304DEAE72F4B00223046D1
:105AD0003946FAF70BFD0B9B04460D4633B901F12D
