:020000040800F2
:10000000005000209D1C0008691900086F190008A5
:10001000751900087B19000881190008000000000C
:100020000000000000000000000000008719000828
:1000300093190008000000009F190008AB19000880
:10004000E51C0008E51C0008E51C0008E51C00088C
:10005000E51C0008E51C0008E51C0008E51C00087C
:10006000E51C0008E51C0008E51C0008E51C00086C
:10007000E51C0008E51C0008E51C0008E51C00085C
:10008000E51C0008E51C0008E51C0008E51C00084C
:10009000E51C0008E51C0008E51C0008E51C00083C
:1000A000E51C0008E51C0008E51C0008E51C00082C
:1000B000E51C0008E51C0008E51C0008E51C00081C
:1000C000E51C0008E51C0008E51C0008E51C00080C
:1000D000E51C0008B9190008E51C0008E51C00082B
:1000E000E51C0008E51C0008E51C000800000000F5
:1000F0000000000000000000000000000000000000
:0C01000000000000000000005FF808F1A3
:1001100010B5054C237833B9044B13B10448AFF341
:1001200000800123237010BDF401002000000000B6
:100130003872000808B5034B1BB103490348AFF3FD
:10014000008008BD00000000F8010020387200089F
:1001500010F8012B11F8013B012A28BF9A42F7D071
:10016000D01A7047034613F8012B002AFBD1181A46
:100170000138704781F0004102E000BF83F0004386
:1001800030B54FEA41044FEA430594EA050F08BF32
:1001900090EA020F1FBF54EA000C55EA020C7FEAF6
:1001A000645C7FEA655C00F0E2804FEA5454D4EB73
:1001B0005555B8BF6D420CDD2C4480EA020281EA3D
:1001C000030382EA000083EA010180EA020281EA75
:1001D0000303362D88BF30BD11F0004F4FEA0131C7
:1001E0004FF4801C4CEA113102D0404261EB4101D6
:1001F00013F0004F4FEA03334CEA133302D052425C
:1002000063EB430394EA050F00F0A780A4F1010417
:10021000D5F1200E0DDB02FA0EFC22FA05F2801851
:1002200041F1000103FA0EF2801843FA05F3594137
:100230000EE0A5F120050EF1200E012A03FA0EFCB6
:1002400028BF4CF0020C43FA05F3C01851EBE371E0
:1002500001F0004507D54FF0000EDCF1000C7EEBFD
:1002600000006EEB0101B1F5801F1BD3B1F5001F3B
:100270000CD349085FEA30004FEA3C0C04F101045A
:100280004FEA445212F5800F80F09A80BCF1004F83
:1002900008BF5FEA500C50F1000041EB045141EA05
:1002A000050130BD5FEA4C0C404141EB0101013CCE
:1002B00028BFB1F5801FE9D291F0000F04BF0146BD
:1002C0000020B1FA81F308BF2033A3F10B03B3F18F
:1002D00020020CDA0C3208DD02F1140CC2F10C021F
:1002E00001FA0CF021FA02F10CE002F11402D8BF7D
:1002F000C2F1200C01FA02F120FA0CFCDCBF41EA49
:100300000C019040E41AA2BF01EB0451294330BD17
:100310006FEA04041F3C1CDA0C340EDC04F11404F4
:10032000C4F1200220FA04F001FA02F340EA0300CB
:1003300021FA04F345EA030130BDC4F10C04C4F111
:10034000200220FA02F001FA04F340EA03002946F1
:1003500030BD21FA04F0294630BD94F0000F83F43B
:10036000801306BF81F480110134013D4EE77FEA1E
:10037000645C18BF7FEA655C29D094EA050F08BF6A
:1003800090EA020F05D054EA000C04BF194610464B
:1003900030BD91EA030F1EBF0021002030BD5FEA8F
:1003A000545C05D14000494128BF41F0004130BDB7
:1003B00014F580043CBF01F5801130BD01F000450B
:1003C00045F0FE4141F470014FF0000030BD7FEA7E
:1003D000645C1ABF194610467FEA655C1CBF0B4679
:1003E000024650EA013406BF52EA033591EA030F90
:1003F00041F4002130BD00BF90F0000F04BF002188
:10040000704730B54FF4806404F132044FF00005BA
:100410004FF0000150E700BF90F0000F04BF002133
:10042000704730B54FF4806404F1320410F0004599
:1004300048BF40424FF000013EE700BF42004FEA94
:10044000E2014FEA31014FEA02701FBF12F07F4311
:1004500093F07F4F81F06051704732F07F4208BFC8
:10046000704793F07F4F04BF41F40021704730B5CF
:100470004FF4607401F0004521F000411CE700BF1B
:1004800050EA010208BF704730B54FF000050AE09E
:1004900050EA010208BF704730B511F0004502D59F
:1004A000404261EB41014FF4806404F132045FEAA1
:1004B000915C3FF4D8AE4FF003025FEADC0C18BF4A
:1004C00003325FEADC0C18BF033202EBDC02C2F13C
:1004D000200300FA03FC20FA02F001FA03FE40EACE
:1004E0000E0021FA02F11444BDE600BF70B54FF0D2
:1004F000FF0C4CF4E06C1CEA11541DBF1CEA1355B0
:1005000094EA0C0F95EA0C0F00F0DEF82C4481EA17
:10051000030621EA4C5123EA4C5350EA013518BF37
:1005200052EA033541F4801143F4801338D0A0FB24
:1005300002CE4FF00005E1FB02E506F00042E0FBD1
:1005400003E54FF00006E1FB03569CF0000F18BFD7
:100550004EF0010EA4F1FF04B6F5007F64F540747F
:1005600004D25FEA4E0E6D4146EB060642EAC62112
:1005700041EA55514FEAC52040EA5E504FEACE2E7F
:10058000B4F1FD0C88BFBCF5E06F1ED8BEF1004F82
:1005900008BF5FEA500E50F1000041EB045170BDFE
:1005A00006F0004646EA010140EA020081EA030142
:1005B000B4EB5C04C2BFD4EB0C0541EA045170BD3E
:1005C00041F480114FF0000E013C00F3AB8014F1B8
:1005D000360FDEBF002001F0004170BDC4F1000401
:1005E000203C35DA0C341BDC04F11404C4F1200582
:1005F00000FA05F320FA04F001FA05F240EA0200DD
:1006000001F0004221F0004110EBD37021FA04F612
:1006100042EB06015EEA430E08BF20EAD37070BDCC
:10062000C4F10C04C4F1200500FA04F320FA05F02B
:1006300001FA04F240EA020001F0004110EBD3702D
:1006400041F100015EEA430E08BF20EAD37070BD9D
:10065000C4F1200500FA05F24EEA020E20FA04F376
:1006600001FA05F243EA020321FA04F001F0004125
:1006700021FA04F220EA020000EBD3705EEA430E96
:1006800008BF20EAD37070BD94F0000F0FD101F0C5
:100690000046400041EB010111F4801F08BF013CFE
:1006A000F7D041EA060195F0000F18BF704703F03C
:1006B0000046520043EB030313F4801F08BF013DC3
:1006C000F7D043EA0603704794EA0C0F0CEA13557F
:1006D00018BF95EA0C0F0CD050EA410618BF52EA39
:1006E0004306D1D181EA030101F000414FF000003F
:1006F00070BD50EA410606BF1046194652EA43064D
:1007000019D094EA0C0F02D150EA013613D195EAC0
:100710000C0F05D152EA03361CBF104619460AD108
:1007200081EA030101F0004141F0FE4141F4700112
:100730004FF0000070BD41F0FE4141F4780170BD02
:1007400070B54FF0FF0C4CF4E06C1CEA11541DBF67
:100750001CEA135594EA0C0F95EA0C0F00F0A7F869
:10076000A4EB050481EA030E52EA03354FEA013196
:1007700000F088804FEA03334FF0805545EA1313A9
:1007800043EA12634FEA022245EA111545EA106571
:100790004FEA00260EF000419D4208BF964244F108
:1007A000FD0404F5407402D25B084FEA3202B61A27
:1007B00065EB03055B084FEA32024FF480104FF4FB
:1007C000002CB6EB020E75EB030E22BFB61A75466F
:1007D00040EA0C005B084FEA3202B6EB020E75EB02
:1007E000030E22BFB61A754640EA5C005B084FEA6A
:1007F0003202B6EB020E75EB030E22BFB61A754637
:1008000040EA9C005B084FEA3202B6EB020E75EB41
:10081000030E22BFB61A754640EADC0055EA060E02
:1008200018D04FEA051545EA16754FEA06164FEA45
:10083000C30343EA52734FEAC2025FEA1C1CC0D1F1
:1008400011F4801F0BD141EA00014FF000004FF07E
:10085000004CB6E711F4801F04BF01430020B4F13F
:10086000FD0C88BFBCF5E06F3FF6AFAEB5EB030CF7
:1008700004BFB6EB020C5FEA500C50F1000041EBF4
:10088000045170BD0EF0004E4EEA113114EB5C04C1
:10089000C2BFD4EB0C0541EA045170BD41F4801194
:1008A0004FF0000E013C90E645EA060E8DE60CEA9C
:1008B000135594EA0C0F08BF95EA0C0F3FF43BAFB9
:1008C00094EA0C0F0AD150EA01347FF434AF95EA70
:1008D0000C0F7FF425AF104619462CE795EA0C0F54
:1008E00006D152EA03353FF4FDAE1046194622E721
:1008F00050EA410618BF52EA43067FF4C5AE50EAFB
:1009000041047FF40DAF52EA43057FF4EBAE12E7EA
:100910004FF0FF3C06E000BF4FF0010C02E000BFCB
:100920004FF0010C4DF804CD4FEA410C7FEA6C5CAE
:100930004FEA430C18BF7FEA6C5C1BD001B050EA51
:10094000410C0CBF52EA430C91EA030F02BF90EA3C
:10095000020F0020704710F1000F91EA030F58BFFB
:10096000994208BF90422CBFD8176FEAE37040F05D
:10097000010070474FEA410C7FEA6C5C02D150EAFB
:10098000013C07D14FEA430C7FEA6C5CD6D152EAB6
:10099000033CD3D05DF8040B704700BF844610467B
:1009A00062468C461946634600E000BF01B5FFF77A
:1009B000B7FF002848BF10F1000F01BD4DF808ED4A
:1009C000FFF7F4FF0CBF012000205DF808FB00BF1B
:1009D0004DF808EDFFF7EAFF34BF012000205DF875
:1009E00008FB00BF4DF808EDFFF7E0FF94BF0120C2
:1009F00000205DF808FB00BF4DF808EDFFF7CEFFC3
:100A000094BF012000205DF808FB00BF4DF808ED01
:100A1000FFF7C4FF34BF012000205DF808FB00BFD2
:100A20004FEA410212F5001215D211D56FF4787316
:100A3000B3EB625212D94FEAC12343F0004343EAB9
:100A4000505311F0004F23FA02F018BF4042704794
:100A50004FF00000704750EA013005D111F000401E
:100A600008BF6FF0004070474FF00000704700BFB4
:100A70004A0011D212F5001211D20DD56FF478731D
:100A8000B3EB62520ED44FEAC12343F0004343EA72
:100A9000505323FA02F070474FF00000704750EABD
:100AA000013002D14FF0FF3070474FF00000704727
:100AB00038B505460C460022002328462146FFF79C
:100AC00087FF28B928462146BDE8384000F00AB81B
:100AD000284604F1004100F005F8404261EB410175
:100AE00038BD00BFD0B500220B4B06460F46FFF7BE
:100AF000FDFCFFF7BDFF0446FFF77EFC0022074B1D
:100B0000FFF7F4FC02460B4630463946FFF736FB4A
:100B1000FFF7AEFF2146D0BD0000F03D0000F041E0
:100B200080B500AF01F0E0F800F0E8F800F082F9DD
:100B300000F028F900F054F900F0A6FB0021002095
:100B400000F00AFD01225E495E4800F09BFD112184
:100B5000002000F001FD01225B495C4800F092FD9D
:100B60001B21002000F0F8FC01225749584800F0F2
:100B700089FD2521002000F0EFFC01225249554853
:100B800000F080FD00F044FC534800F0B0F9534BF6
:100B90001B78002B5DD0514B00221A7000213C20A5
:100BA00000F0DAFC4C4BDB6901224549184600F0A5
:100BB00069FD1121222000F0CFFC474BDB680122A8
:100BC0004149184600F05EFD1121732000F0C4FC7D
:100BD000414B1B6901223C49184600F053FD1B2183
:100BE000222000F0B9FC3C4B5B69012236491846D3
:100BF00000F048FD1B21732000F0AEFC364B9B69D2
:100C000001223149184600F03DFD2521232000F046
:100C1000A3FC314B9B6801222B49184600F032FDA2
:100C20002F21002000F098FC2B4B5B680122264905
:100C3000184600F027FD2F21462000F08DFC264BA2
:100C40005B6A01222049184600F01CFD00F0E0FB21
:100C50009DE7234B1B78012B0CD1224B1B78062BD5
:100C600008D01F4B00221A7001221F491F4802F0B2
:100C7000D6FD24E01A4B1B78012B88D1194B1B7829
:100C8000062B84D11A4B1B78002B0BD1144B4B2213
:100C90001A704A221749154802F0C1FD144B01226F
:100CA0001A7074E7124B00221A700E4B00221A7051
:100CB0001149094800F064F9084B01221A7066E7EF
:100CC0000800002050720008000000205872000840
:100CD00060720008687200080804002030040020D8
:100CE00010000020310400203304002064020020A2
:100CF00032040020AE020020A802002080B590B08F
:100D000000AF07F1180328220021184603F0D2F99A
:100D10003B1D00221A605A609A60DA601A61012352
:100D2000BB614FF48033FB6100233B620123BB6254
:100D300002237B634FF48033BB634FF40023FB63D8
:100D400007F11803184602F003F90346002B01D0FF
:100D500000F0C8F80F237B600223BB600023FB6018
:100D600000233B6100237B613B1D0121184602F0FB
:100D700071FB0346002B01D000F0B4F800BF4037F0
:100D8000BD4680BD80B500AF124B134A1A60114BAF
:100D9000124A5A600F4B00229A600E4B0022DA6012
:100DA0000C4B4FF480421A610A4B00225A61094BE6
:100DB00000229A61074B0022DA61064B00221A6278
:100DC000044801F04DFB0346002B01D000F08AF8E7
:100DD00000BF80BD1002002000540040801A0600B1
:100DE00080B500AF114B124A1A60104B4FF41652E7
:100DF0005A600E4B00229A600C4B0022DA600B4BBB
:100E000000221A61094B04225A61084B00229A61A0
:100E1000064B0022DA61054802F0B4FC0346002BC1
:100E200001D000F05FF800BF80BD00BF6402002069
:100E30000038014080B588B000AF07F110030022F0
:100E40001A605A609A60DA60244B9B69234A43F027
:100E500010039361214B9B6903F01003FB60FB6857
:100E60001E4B9B691D4A43F0200393611B4B9B69FA
:100E700003F02003BB60BB68184B9B69174A43F023
:100E800004039361154B9B6903F004037B607B684B
:100E9000124B9B69114A43F0080393610F4B9B6906
:100EA00003F008033B603B6800224FF400510C48FC
:100EB00001F0BEFA4FF400533B6101237B61002334
:100EC000BB610223FB6107F110031946044801F0DE
:100ED0002BF900BF2037BD4680BD00BF0010024087
:100EE0000010014080B400AF72B600BFFEE780B5CD
:100EF00082B000AF78600A2003F0D4F803461A46A7
:100F00007B681A600C2003F0CDF803461A467B6814
:100F10005A600A2003F0C6F803461A467B689A60B6
:100F20000A2003F0BFF803461A467B68DA60022005
:100F300003F0B8F803461A467B681A610C2003F0E8
:100F4000B1F803461A467B685A61022003F0AAF8FA
:100F500003461A467B689A610A2003F0A3F8034609
:100F60001A467B68DA61082003F09CF803461A46AB
:100F70007B685A6200BF0837BD4680BD0000000094
:100F800080B58CB000AF786039600023BB6200236D
:100F900087F82730A249386803F0BEFFF86266E19F
:100FA000BB6A092B00F2568101A252F823F000BF60
:100FB000D90F0008ED0F00088D1000082911000856
:100FC0003D11000851110008651100087911000851
:100FD000C7110008051200087B681B68F96A1846EB
:100FE00003F07CF9BB6A0133BB6237E17B685B6865
:100FF000FA6A8C49184603F051F98B49F86AFFF7F1
:10100000A7F80346002B3DD1884BFB627B685B68E9
:10101000FA6A8449184603F041F9854BFB627B6804
:10102000DB68F96A184603F059F97B685B69F96A6D
:10103000184603F053F97F4BFB627B681B69F96A22
:10104000184603F04BF97B689B69F96A184603F070
:1010500045F97B689B687849184603F01FF9774B80
:10106000FB627B68DB69F96A184603F037F9744B59
:10107000FB627B685B6AF96A184603F02FF901236B
:1010800087F82730BB6A0133BB62E7E06D49F86A35
:10109000FFF75EF80346002B06D17B689B686A4920
:1010A000184603F0FBF83BE05F49F86AFFF750F899
:1010B0000346002B34D15E4BFB627B68DB68F96A28
:1010C000184603F00BF97B685B69F96A184603F070
:1010D00005F9584BFB627B681B69F96A184603F0F7
:1010E000FDF87B689B69F96A184603F0F7F87B689E
:1010F0009B685149184603F0D1F8504BFB627B685E
:10110000DB69F96A184603F0E9F84D4BFB627B682E
:101110005B6AF96A184603F0E1F8012387F8273083
:10112000BB6A0133BB6299E07B68DB68F96A1846E9
:1011300003F0D4F8BB6A0133BB628FE07B681B69A4
:10114000F96A184603F0CAF8BB6A0133BB6285E04E
:101150007B685B69F96A184603F0C0F8BB6A013323
:10116000BB627BE07B689B69F96A184603F0B6F8BE
:10117000BB6A0133BB6271E007F10C031946F86AE0
:1011800003F0BEFEC7E9040123A3D3E90023D7E996
:101190000401FFF7ABF902460B46C7E90423D7E980
:1011A0000401FFF73DFC03461A462849F86A03F09C
:1011B00075F87B68DB69F96A184603F08FF8BB6A3B
:1011C0000133BB624AE007F10C031946F86A03F0E9
:1011D00097FEC7E906014FF000021D4BD7E9060153
:1011E000FFF70AFC0346002B08D07B685B6AF96AAC
:1011F000184603F073F8012387F82730BB6A0133E0
:10120000BB622BE07B685B6AF96A184603F066F8FC
:10121000BB6A0133BB6221E06F1283C0CAA1FD3FEC
:1012200070720008747200087C72000880720008F6
:101230008872000890720008947200089C7200087E
:10124000A0720008A8720008AC720008B47200080E
:101250000040B040BB6A0133BB6200BF09490020B7
:1012600003F05AFEF86297F82730012B04D0FB6A8E
:10127000002B7FF495AE00E000BF00BF3037BD46C5
:1012800080BD00BF7072000880B582B000AF00F072
:101290001FFA44F62063012278215B4801F022FB0B
:1012A0000346002B01D00023A9E040F6C4137B6065
:1012B00002E07B68013B7B607B68002BF9D1AE22AA
:1012C0000021782000F07EFA20220021782000F012
:1012D00079FA10220021782000F074FAB02200215F
:1012E000782000F06FFAC8220021782000F06AFA16
:1012F00000220021782000F065FA102200217820D9
:1013000000F060FA40220021782000F05BFA812290
:101310000021782000F056FAFF220021782000F00A
:1013200051FAA1220021782000F04CFAA6220021D7
:10133000782000F047FAA8220021782000F042FA35
:101340003F220021782000F03DFAA42200217820DD
:1013500000F038FAD3220021782000F033FA00227E
:101360000021782000F02EFAD5220021782000F00C
:1013700029FAF0220021782000F024FAD922002155
:10138000782000F01FFA22220021782000F01AFABB
:10139000DA220021782000F015FA122200217820AC
:1013A00000F010FADB220021782000F00BFA202256
:1013B0000021782000F006FA8D220021782000F02C
:1013C00001FA14220021782000F0FCF9AF2200215C
:1013D000782000F0F7F92E220021782000F0F2F9B1
:1013E000002000F043F800F013F8084B00221A80A8
:1013F000064B00225A80054B01225A7101231846E0
:101400000837BD4680BD00BF100200203408002010
:1014100080B582B000AF0023FB711DE0FB79503B2B
:10142000DBB21A460021782000F0CCF9002200211E
:10143000782000F0C7F910220021782000F0C2F9CE
:10144000FB79DB01084A1A4480234021782000F010
:1014500053F9FB790133FB71FB79072BDED900BF10
:1014600000BF0837BD4680BD3404002080B582B07F
:1014700000AF0346FB71FB79002B01D1002300E094
:10148000FF234FF480621946034802F013FE00BFA9
:101490000837BD4680BD00BF3404002080B483B04F
:1014A00000AF0346FB800B46BB801346FB70FB88F6
:1014B0007F2B48D8BB883F2B45D8254B1B79002B69
:1014C00006D0FB78002B0CBF01230023DBB2FB709E
:1014D000FB78012B1AD1FA88BB88DB0898B2034647
:1014E000DB0113441B4AD35C5AB2BB8803F00703E9
:1014F000012101FA03F35BB2134359B2FA880346A0
:10150000DB011344C9B2134AD1541DE0FA88BB88E9
:10151000DB0898B20346DB0113440E4AD35C5AB28F
:10152000BB8803F00703012101FA03F35BB2DB433D
:101530005BB2134059B2FA880346DB011344C9B2C7
:10154000044AD15400E000BF0C37BD4680BC704750
:10155000340800203404002080B483B000AF034678
:101560000A46FB801346BB80054AFB881380044A69
:10157000BB88538000BF0C37BD4680BC704700BF9E
:101580003408002080B586B000AF03463960FB7197
:101590001346BB713A4B1B881A463B681B781344B1
:1015A0007F2B07DC364B5B881A463B685B7813441D
:1015B0003F2B01DD00235EE000237B614BE03B68B5
:1015C0005A68FB79203B3968497801FB03F31946D7
:1015D0007B690B445B0013441B88FB6000233B6169
:1015E00030E0FA683B6902FA03F303F40043002B8E
:1015F00010D0234B1A883B699BB2134498B2204BFE
:101600005A887B699BB213449BB2BA791946FFF79B
:1016100045FF14E01A4B1A883B699BB2134498B2F9
:10162000174B5A887B699BB2134499B2BB79002B44
:101630000CBF01230023DBB21A46FFF72FFF3B69E3
:1016400001333B613B681B781A463B699342C8D320
:101650007B6901337B613B685B781A467B69934207
:10166000ADD3074B1A883B681B789BB213449AB2E0
:10167000034B1A80FB7918461837BD4680BD00BF62
:101680003408002080B584B000AFF860B96013461C
:10169000FB7112E0FB681B78FA79B9681846FFF70E
:1016A00071FF03461A46FB681B789A4202D0FB681A
:1016B0001B7808E0FB680133FB60FB681B78002B9C
:1016C000E8D1FB681B7818461037BD4680BD000086
:1016D00080B483B000AF074B7B6002E07B68013BC6
:1016E0007B607B68002BF9D100BF00BF0C37BD4683
:1016F00080BC704790D0030090B5C7B002AF0446DD
:10170000084607F58871A1F588710A60194607F542
:101710008873A3F2091322461A7007F58873A3F59C
:10172000857302461A7007F58873A3F586730A4617
:101730001A8007F58873A3F5827307F58872A2F5FE
:10174000857212781A70002387F80F3115E097F828
:101750000F3107F58872A2F5887212681A4497F85B
:101760000F310133117807F58872A2F58272D154D6
:1017700097F80F31013387F80F3197F80F319BB28B
:1017800007F58872A2F5867212889A42DFD807F5AB
:101790008873A3F209131B7899B207F58873A3F530
:1017A00086731B8801339BB207F10C020A2000905C
:1017B000034800F099FF00BF07F58A77BD4690BD4A
:1017C0001002002080B586B002AF0346FB710B46C5
:1017D000BB7113467B71BB793B737B797B73FB7960
:1017E00099B207F10C020A2300930223034800F088
:1017F0007BFF00BF1037BD4680BD00BF1002002038
:1018000080B483B000AF0E4B9B690D4A43F00103D7
:1018100093610B4B9B6903F001037B607B68084B72
:10182000DB69074A43F08053D361054BDB6903F062
:1018300080533B603B6800BF0C37BD4680BC70479F
:101840000010024080B588B000AF786007F1100347
:1018500000221A605A609A60DA607B681B68154A39
:10186000934223D1144B9B69134A43F008039361BD
:10187000114B9B6903F00803FB60FB68C0233B61CD
:1018800012237B610323FB6107F1100319460B4808
:1018900000F04AFC084BDB69074A43F40013D361AC
:1018A000054BDB6903F40013BB60BB6800BF203746
:1018B000BD4680BD0054004000100240000C0140B5
:1018C00080B588B000AF786007F1100300221A607D
:1018D0005A609A60DA607B681B68204A934239D16B
:1018E0001F4B9B691E4A43F4804393611C4B9B69C9
:1018F00003F48043FB60FB68194B9B69184A43F073
:1019000004039361164B9B6903F00403BB60BB683F
:101910004FF400733B6102237B610323FB6107F1FA
:10192000100319460F4800F0FFFB4FF480633B6142
:1019300000237B610023BB6107F1100319460948AE
:1019400000F0F2FB00220021252000F006FB2520FC
:1019500000F01FFB00BF2037BD4680BD00380140AE
:10196000001002400008014080B400AFFEE780B4E0
:1019700000AFFEE780B400AFFEE780B400AFFEE743
:1019800080B400AFFEE780B400AF00BFBD4680BCAE
:10199000704780B400AF00BFBD4680BC704780B4C4
:1019A00000AF00BFBD4680BC704780B500AF00F0FF
:1019B000E1F900BF80BD000080B500AF4F4801F0E5
:1019C0005FFF4F4B1B78002B11D14E4B1B78242B04
:1019D0000DD14B4B1B781A464A4B19784A4B9954F8
:1019E000474B01221A70494B01221A7083E0444B85
:1019F0001B78012B11D1434B1B78472B0DD1404B4A
:101A00001B781A463F4B19783F4B99543C4B0222A6
:101A10001A703E4B01221A706DE0394B1B78022B75
:101A200011D1384B1B78502B0DD1354B1B781A46F2
:101A3000344B1978344B9954314B03221A70334B81
:101A400001221A7057E02E4B1B78032B11D12D4B1E
:101A50001B78522B0DD12A4B1B781A46294B19782B
:101A6000294B9954264B04221A70284B01221A70D4
:101A700041E0234B1B78042B11D1224B1B784D2BBB
:101A80000DD11F4B1B781A461E4B19781E4B9954CB
:101A90001B4B05221A701D4B01221A702BE0184BAC
:101AA0001B78052B11D1174B1B78432B0DD1144BF1
:101AB0001B781A46134B1978134B9954104B062276
:101AC0001A70124B01221A7015E00D4B1B78062B71
:101AD00006D00B4B00221A700C4B01221A700AE040
:101AE000074B1B78062B06D1084B1B78013BDAB25B
:101AF000064B1A70FFE700BF80BD00BF64020020E4
:101B00003104002033040020A8020020100000202F
:101B100080B400AF01231846BD4680BC704780B535
:101B200082B000AF7860396002F092FA0346162264
:101B30001A604FF0FF3318460837BD4680BD80B5A8
:101B400082B000AF78604FF0FF317868FFF7E7FFB1
:101B5000FEE780B586B000AFF860B9607A60002318
:101B60007B610AE0AFF300800146BB685A1CBA6093
:101B7000CAB21A707B6901337B617A697B689A42C9
:101B8000F0DB7B6818461837BD4680BD80B586B04F
:101B900000AFF860B9607A6000237B6109E0BB6840
:101BA0005A1CBA601B781846AFF300807B6901337A
:101BB0007B617A697B689A42F1DB7B68184618374B
:101BC000BD4680BD80B483B000AF78604FF0FF3376
:101BD00018460C37BD4680BC704780B483B000AF58
:101BE000786039603B684FF400525A600023184611
:101BF0000C37BD4680BC704780B483B000AF7860BE
:101C0000012318460C37BD4680BC704780B485B0B0
:101C100000AFF860B9607A60002318461437BD46FB
:101C200080BC704780B586B000AF7860144A154B11
:101C3000D31A7B617B693B61134B1B68002B02D17C
:101C4000114B124A1A60104B1A687B6813443A69A8
:101C50009A4207D202F0FCF903460C221A604FF0B8
:101C6000FF3309E0084B1B68FB60074B1A687B6871
:101C70001344054A1360FB6818461837BD4680BDFB
:101C800000500020000400003C08002058080020FC
:101C900080B400AF00BFBD4680BC70470C480D4902
:101CA0000D4A002302E0D458C4500433C4188C42B7
:101CB000F9D30A4A0A4C002301E013600432A2421D
:101CC000FBD3FFF7E5FF02F0C9F9FEF729FF7047E4
:101CD00000000020F4010020408C0008F4010020E6
:101CE00054080020FEE7000080B500AF084B1B68D9
:101CF000074A43F010031360032000F023F90F207C
:101D000000F008F8FFF77CFD0023184680BD00BFF7
:101D10000020024080B582B000AF7860124B1A6894
:101D2000124B1B7819464FF47A73B3FBF1F3B2FBF5
:101D3000F3F3184600F03BF90346002B01D00123D2
:101D40000EE07B680F2B0AD8002279684FF0FF3035
:101D500000F003F9064A7B681360002300E00123CA
:101D600018460837BD4680BD140000201C00002026
:101D70001800002080B400AF054B1B781A46054BB5
:101D80001B681344034A136000BFBD4680BC704704
:101D90001C0000204008002080B400AF024B1B68EC
:101DA0001846BD4680BC70474008002080B485B00E
:101DB00000AF78607B6803F00703FB600C4BDB68C7
:101DC000BB60BA684FF6FF031340BB60FB681A02A2
:101DD000BB68134343F0BF6343F40033BB60044A62
:101DE000BB68D36000BF1437BD4680BC704700BFDE
:101DF00000ED00E080B400AF044BDB681B0A03F089
:101E000007031846BD4680BC704700BF00ED00E0E8
:101E100080B483B000AF0346FB7197F90730002B05
:101E20000BDBFB7903F01F02064997F907305B09CA
:101E3000012000FA02F241F8232000BF0C37BD4612
:101E400080BC704700E100E080B483B000AF03467F
:101E50003960FB7197F90730002B0ADB3B68DAB277
:101E60000C4997F907301201D2B20B4483F80023D2
:101E70000AE03B68DAB20849FB7903F00F03043B40
:101E80001201D2B20B441A7600BF0C37BD4680BC9B
:101E9000704700BF00E100E000ED00E080B489B0D1
:101EA00000AFF860B9607A60FB6803F00703FB617C
:101EB000FB69C3F10703042B28BF0423BB61FB6943
:101EC0000433062B02D9FB69033B00E000237B614E
:101ED0004FF0FF32BB6902FA03F3DA43BB681A40E2
:101EE0007B699A404FF0FF317B6901FA03F3D943D4
:101EF0007B680B40134318462437BD4680BC7047AF
:101F000080B582B000AF78607B68013BB3F1807F21
:101F100001D301230FE00A4A7B68013B53600F2184
:101F20004FF0FF30FFF790FF054B00229A60044B03
:101F300007221A60002318460837BD4680BD00BF3F
:101F400010E000E080B582B000AF78607868FFF7FD
:101F50002DFF00BF0837BD4680BD80B586B000AFFD
:101F60000346B9607A60FB7300237B61FFF742FF91
:101F700078617A68B9687869FFF790FF024697F947
:101F80000F3011461846FFF75FFF00BF1837BD46F8
:101F900080BD80B582B000AF0346FB7197F9073072
:101FA0001846FFF735FF00BF0837BD4680BD80B536
:101FB00082B000AF78607868FFF7A2FF034618464A
:101FC0000837BD4680BD80B485B000AF786000237F
:101FD000FB737B6893F82130022B08D07B680422C6
:101FE0009A637B68002283F82020012320E07B682D
:101FF0001B681A687B681B6822F00E021A607B68F7
:102000001B681A687B681B6822F001021A607B68F3
:102010001A6C7B68DB6B012101FA02F25A607B6863
:10202000012283F821207B68002283F82020FB7B9B
:1020300018461437BD4680BC7047000080B584B098
:1020400000AF78600023FB737B6893F82130022B8C
:1020500005D07B6804229A630123FB7351E07B68FF
:102060001B681A687B681B6822F00E021A607B6886
:102070001B681A687B681B6822F001021A607B6883
:102080001B68224A934229D07B681B68204A9342EE
:1020900022D07B681B681F4A93421AD07B681B685A
:1020A0001D4A934212D07B681B681C4A93420AD097
:1020B0007B681B681A4A934202D14FF480130EE0EA
:1020C0004FF080730BE04FF4803308E04FF48053FF
:1020D00005E04FF4807302E0102300E00123114A71
:1020E00053607B68012283F821207B68002283F8FB
:1020F00020207B685B6B002B03D07B685B6B786870
:102100009847FB7B18461037BD4680BD080002404B
:102110001C000240300002404400024058000240CF
:102120006C0002400000024080B48BB000AF7860C9
:10213000396000237B6200233B6269E101227B6AF4
:1021400002FA03F3FB613B681B68FA691340BB6149
:10215000BA69FB699A4240F058813B685B689A4AC9
:1021600093425ED0984A934275D8984A934258D089
:10217000964A93426FD8964A934252D0944A9342D9
:1021800069D8944A93424CD0924A934263D8924A77
:10219000934246D0904A93425DD8122B2AD8122BF4
:1021A00059D801A252F823F023220008FD2100088B
:1021B0000F22000851220008572200085722000869
:1021C000572200085722000857220008572200080B
:1021D00057220008572200085722000857220008FB
:1021E000572200085722000857220008052200083D
:1021F00019220008794A934213D02CE03B68DB682F
:102200003B6229E03B68DB6804333B6224E03B68C7
:10221000DB6808333B621FE03B68DB680C333B62E2
:102220001AE03B689B68002B02D104233B6213E059
:102230003B689B68012B05D108233B627B68FA69E8
:102240001A6109E008233B627B68FA695A6103E07E
:1022500000233B6200E000BFBB69FF2B01D87B6815
:1022600001E07B6804337B61BB69FF2B02D87B6A8A
:102270009B0002E07B6A083B9B003B617B691A681C
:102280000F213B6901FA03F3DB431A40396A3B69CA
:1022900001FA03F31A437B691A603B685B6803F039
:1022A0008053002B00F0B1804D4B9B694C4A43F0AA
:1022B000010393614A4B9B6903F00103BB60BB6858
:1022C000484A7B6A9B08023352F82330FB607B6AE2
:1022D00003F003039B000F2202FA03F3DB43FA68C7
:1022E0001340FB607B68404A934213D07B683F4AAF
:1022F00093420DD07B683E4A934207D07B683D4AAB
:10230000934201D1032306E0042304E0022302E008
:10231000012300E000237A6A02F003029200934056
:10232000FA681343FB602F497B6A9B080233FA6803
:1023300041F823203B685B6803F48033002B06D010
:102340002D4B1A682C49BB6913430B6006E02A4BDE
:102350001A68BB69DB43284913400B603B685B6824
:1023600003F40033002B06D0234B5A682249BB6983
:1023700013434B6006E0204B5A68BB69DB431E49A0
:1023800013404B603B685B6803F48013002B06D05E
:10239000194B9A681849BB6913438B6006E0164BCA
:1023A0009A68BB69DB43144913408B603B685B68E8
:1023B00003F40013002B21D00F4BDA680E49BB69E0
:1023C0001343CB6021E000BF000032100000311049
:1023D0000000221000002110000012100000111057
:1023E000001002400000014000080140000C0140C4
:1023F0000010014000140140000401400B4BDA685A
:10240000BB69DB4309491340CB607B6A01337B62C4
:102410003B681A687B6A22FA03F3002B7FF48EAEC6
:1024200000BF00BF2C37BD4680BC70470004014090
:1024300080B483B000AF78600B467B8013467B701E
:102440007B78002B03D07A887B681A6103E07B8855
:102450001A047B681A6100BF0C37BD4680BC704708
:1024600080B584B000AF78607B68002B01D1012378
:102470002BE17B6893F83D30DBB2002B06D17B6803
:10248000002283F83C207868FFF7DCF97B6824227F
:1024900083F83D207B681B681A687B681B6822F004
:1024A00001021A607B681B681A687B681B6842F42B
:1024B00000421A607B681B681A687B681B6822F4FC
:1024C00000421A6001F018F9F8607B685B68814A85
:1024D000934207D8FB68804A934294BF01230023AC
:1024E000DBB206E0FB687D4A934294BF01230023E0
:1024F000DBB2002B01D00123E7E0FB68784AA2FBA6
:1025000003239B0CBB607B681B685B6823F03F0167
:102510007B681B68BA680A435A607B681B681B6A41
:1025200023F03F017B685B686A4A934202D8BB682C
:10253000013309E0BB684FF4967202FB03F3694A6A
:10254000A2FB03239B0901337A6812680B431362D1
:102550007B681B68DB6923F44F4222F0FF027B6833
:102560005B685C498B4219D8FB68591E7B685B68C5
:102570005B00B1FBF3F3591C40F6FC730B40002BDE
:102580000AD0FB68591E7B685B685B00B1FBF3F304
:102590000133C3F30B0351E004234FE07B689B68D6
:1025A000002B11D1FB68581E7B6859680B465B00F5
:1025B0000B44B0FBF3F30133C3F30B03002B0CBF4D
:1025C00001230023DBB212E0FB68581E7B685968C8
:1025D0000B469B000B4499000B44B0FBF3F3013313
:1025E000C3F30B03002B0CBF01230023DBB2002B32
:1025F00001D0012322E07B689B68002B0ED1FB6891
:10260000581E7B6859680B465B000B44B0FBF3F324
:102610000133C3F30B0343F400430FE0FB68581E80
:102620007B6859680B469B000B4499000B44B0FB38
:10263000F3F30133C3F30B0343F4404379680968B0
:102640001343CB617B681B681B6823F0C0017B6868
:10265000DA697B681B6A1A437B681B680A431A6045
:102660007B681B689B6823F4034323F0FF037A68AD
:1026700011697A68D26811437A6812680B439360D3
:102680007B681B68DB6823F0FF017B685A697B6805
:102690009B691A437B681B680A43DA607B681B6886
:1026A0001A687B681B6842F001021A607B6800228E
:1026B0001A647B68202283F83D207B6800221A631D
:1026C0007B68002283F83E20002318461037BD4661
:1026D00080BD00BFA08601007F841E00FF083D0072
:1026E00083DE1B43D34D621080B588B002AFF86023
:1026F0007A601A460B467B8113463B81FFF74CFB01
:102700007861FB6893F83D30DBB2202B40F0E0802D
:102710007B690093192301227049F86800F092FA4E
:102720000346002B01D00223D3E0FB6893F83C3032
:10273000012B01D10223CCE0FB68012283F83C206D
:10274000FB681B681B6803F00103012B07D0FB68C3
:102750001B681A68FB681B6842F001021A60FB687C
:102760001B681A68FB681B6822F400621A60FB6829
:10277000212283F83D20FB68102283F83E20FB686D
:1027800000221A64FB687A685A62FB683A895A85A3
:10279000FB685B8D9AB2FB681A85FB68504ADA6267
:1027A00079897B693A6AF86800F0CAF90346002B18
:1027B00001D001238DE000233B61FB681B685B694E
:1027C0003B61FB681B689B693B613B6966E07A691A
:1027D000396AF86800F00CFB0346002B0DD0FB684B
:1027E0001B6C042B07D1FB681B681A68FB681B680D
:1027F00042F400721A6001236BE0FB685B6A1A788E
:10280000FB681B681A61FB685B6A5A1CFB685A62AA
:10281000FB685B8D9BB2013B9AB2FB685A85FB68F3
:102820001B8D013B9AB2FB681A85FB681B685B69CC
:1028300003F00403042B1BD1FB681B8D002B17D066
:10284000FB685B6A1A78FB681B681A61FB685B6A45
:102850005A1CFB685A62FB685B8D9BB2013B9AB2C3
:10286000FB685A85FB681B8D013B9AB2FB681A8591
:102870007A69396AF86800F0FCFA0346002B0DD03B
:10288000FB681B6C042B07D1FB681B681A68FB688C
:102890001B6842F400721A6001231AE0FB681B8D6A
:1028A000002B94D1FB681B681A68FB681B6842F414
:1028B00000721A60FB68202283F83D20FB6800222A
:1028C00083F83E20FB68002283F83C20002300E0D0
:1028D000022318461837BD4680BD00BF0200100015
:1028E0000000FFFF80B58AB002AFF8607A603B60FD
:1028F0000B467B81FFF750FAF8610123BB61FB684F
:1029000093F83D30DBB2202B40F01181FB6900933E
:10291000192301228849F86800F094F90346002B36
:1029200001D0022304E1FB6893F83C30012B01D174
:102930000223FDE0FB68012283F83C20FB681B6852
:102940001B6803F00103012B07D0FB681B681A68A2
:10295000FB681B6842F001021A60FB681B681A687A
:10296000FB681B6822F400621A60FB68242283F86B
:102970003D20FB6800221A64FB68704ADA62FB683B
:102980001B681A68FB681B6842F480721A60FB6956
:1029900000933B6800224FF00111F86800F052F9F3
:1029A0000346002B0DD0FB681B681B6803F4807383
:1029B000B3F5807F03D1FB684FF400721A640323E0
:1029C000B6E07B89DBB21A46FB681B6802F0FE02A8
:1029D0001A61FFF7E1F9F861FB681B685B6903F0B6
:1029E0000203022B0CBF01230023DBB2FB75FB6843
:1029F0001B685B6903F48063B3F5806F0CBF012330
:102A00000023DBB2BB7525E0FFF7C6F90246FB6980
:102A1000D31A3A689A4202D33B68002B03D1FB6871
:102A2000A02283F83D20FB681B685B6903F002036A
:102A3000022B0CBF01230023DBB2FB75FB681B6874
:102A40005B6903F48063B3F5806F0CBF012300233F
:102A5000DBB2BB75FB6893F83D30DBB2A02B05D031
:102A6000FB7D002B02D1BB7D002BCDD0FB6820224B
:102A700083F83D20FB681B685B6903F00203022BAF
:102A800029D1FB681B681A68FB681B6842F4007256
:102A90001A6000233B61FB681B685B693B61FB6854
:102AA0001B689B693B613B69FB6900931923012209
:102AB0002149F86800F0C6F80346002B01D0012335
:102AC00036E0FB68202283F83D20FB68002283F873
:102AD0003C2000232CE0FB681B681A68FB681B681D
:102AE00042F400721A60FB681B686FF480625A61DE
:102AF000FB690093192301220F49F86800F0A2F83E
:102B00000346002B01D0012312E0BB690133BB61F6
:102B1000BA697B689A42FFF432AFFB68202283F8DF
:102B20003D20FB68002283F83C20012300E00223C3
:102B300018462037BD4680BD020010000000FFFF90
:102B400080B588B002AFF8607A603B600B467B814D
:102B5000FB68DB6A7B617B69082B06D07B69012BF4
:102B600003D07B6913F5803F08D1FB681B681A68A6
:102B7000FB681B6842F480721A600BE0FB681B6BF9
:102B8000122B07D1FB681B681A68FB681B6842F4AC
:102B900080721A603B6800937B6800224FF001113D
:102BA000F86800F04FF80346002B0DD0FB681B6857
:102BB0001B6803F48073B3F5807F03D1FB684FF487
:102BC00000721A64032335E0FB681B69B3F5804F7C
:102BD00008D17B89DBB21A46FB681B6802F0FE0253
:102BE0001A611BE07B89DB11DBB203F00603DBB269
:102BF00063F00F03DAB2FB681B681A613B687A68FE
:102C00000E49F86800F075F80346002B01D0012347
:102C100010E07B89DAB2FB681B681A613B687A684E
:102C20000749F86800F065F80346002B01D001233E
:102C300000E0002318461837BD4680BD080001009B
:102C40000200010080B584B000AFF860B9603B605D
:102C50001346FB7125E03B68B3F1FF3F21D0FFF73E
:102C60009BF80246BB69D31A3A689A4202D33B6882
:102C7000002B16D1FB6800221A63FB68202283F820
:102C80003D20FB68002283F83E20FB681B6C43F06C
:102C90002002FB681A64FB68002283F83C200123B1
:102CA00023E0BB681B0CDBB2012B0DD1FB681B685A
:102CB0005B69DA43BB6813409BB2002B0CBF012356
:102CC0000023DBB21A460CE0FB681B689B69DA4301
:102CD000BB6813409BB2002B0CBF01230023DBB267
:102CE0001A46FB799A42B6D0002318461037BD46E3
:102CF00080BD80B584B000AFF860B9607A603B6099
:102D000051E0FB681B685B6903F48063B3F5806F77
:102D100023D1FB681B681A68FB681B6842F40072C9
:102D20001A60FB681B686FF480625A61FB680022BE
:102D30001A63FB68202283F83D20FB68002283F899
:102D40003E20FB681B6C43F00402FB681A64FB68BE
:102D5000002283F83C20012346E07B68B3F1FF3F6B
:102D600021D0FFF719F802463B68D31A7A689A42D5
:102D700002D37B68002B16D1FB6800221A63FB6824
:102D8000202283F83D20FB68002283F83E20FB6868
:102D90001B6C43F02002FB681A64FB68002283F876
:102DA0003C20012320E0BB681B0CDBB2012B0CD1C3
:102DB000FB681B685B69DA43BB6813409BB2002B5E
:102DC00014BF01230023DBB20BE0FB681B689B6987
:102DD000DA43BB6813409BB2002B14BF01230023CE
:102DE000DBB2002B8DD1002318461037BD4680BDC5
:102DF00080B584B000AFF860B9607A602DE0F86803
:102E000000F078F80346002B01D001232DE0BB68C9
:102E1000B3F1FF3F21D0FEF7BFFF02467B68D31A14
:102E2000BA689A4202D3BB68002B16D1FB68002215
:102E30001A63FB68202283F83D20FB68002283F898
:102E40003E20FB681B6C43F02002FB681A64FB68A1
:102E5000002283F83C20012307E0FB681B685B69C4
:102E600003F08003802BCAD1002318461037BD46DB
:102E700080BD80B584B000AFF860B9607A602DE0A5
:102E8000F86800F037F80346002B01D001232DE04D
:102E9000BB68B3F1FF3F21D0FEF77EFF02467B689F
:102EA000D31ABA689A4202D3BB68002B16D1FB68CA
:102EB00000221A63FB68202283F83D20FB68002271
:102EC00083F83E20FB681B6C43F02002FB681A6409
:102ED000FB68002283F83C20012307E0FB681B68A5
:102EE0005B6903F00403042BCAD100231846103792
:102EF000BD4680BD80B483B000AF78607B681B683E
:102F00005B6903F48063B3F5806F1BD17B681B683A
:102F10006FF480625A617B6800221A637B6820220A
:102F200083F83D207B68002283F83E207B681B6C81
:102F300043F004027B681A647B68002283F83C201B
:102F4000012300E0002318460C37BD4680BC7047C3
:102F500080B586B000AF78607B68002B01D101237B
:102F600072E27B681B6803F00103002B00F087808E
:102F7000924B5B6803F00C03042B0CD08F4B5B6807
:102F800003F00C03082B12D18C4B5B6803F48033E5
:102F9000B3F5803F0BD1894B1B6803F40033002B42
:102FA0006CD07B685B68002B68D101234CE27B68A6
:102FB0005B68B3F5803F06D1804B1B687F4A43F4C2
:102FC000803313602EE07B685B68002B0CD17B4B59
:102FD0001B687A4A23F480331360784B1B68774A66
:102FE00023F4802313601DE07B685B68B3F5A02F9A
:102FF0000CD1724B1B68714A43F4802313606F4BF2
:103000001B686E4A43F4803313600BE06B4B1B6804
:103010006A4A23F480331360684B1B68674A23F4C1
:10302000802313607B685B68002B13D0FEF7B4FE2F
:10303000386108E0FEF7B0FE02463B69D31A642B04
:1030400001D9032300E25D4B1B6803F40033002B1E
:10305000F0D014E0FEF7A0FE386108E0FEF79CFE19
:1030600002463B69D31A642B01D90323ECE1534B8D
:103070001B6803F40033002BF0D100E000BF7B6835
:103080001B6803F00203002B63D04C4B5B6803F01A
:103090000C03002B0BD0494B5B6803F00C03082B8F
:1030A0001CD1464B5B6803F48033002B16D1434B95
:1030B0001B6803F00203002B05D07B681B69012B02
:1030C00001D00123C0E13D4B1B6823F0F8027B686F
:1030D0005B69DB00394913430B603AE07B681B698D
:1030E000002B20D0364B01221A60FEF755FE3861C6
:1030F00008E0FEF751FE02463B69D31A022B01D9C4
:103100000323A1E12D4B1B6803F00203002BF0D039
:103110002A4B1B6823F0F8027B685B69DB002749B8
:1031200013430B6015E0264B00221A60FEF734FEB5
:10313000386108E0FEF730FE02463B69D31A022BE5
:1031400001D9032380E11D4B1B6803F00203002B10
:10315000F0D17B681B6803F00803002B3AD07B6832
:103160009B69002B19D0174B01221A60FEF714FE41
:10317000386108E0FEF710FE02463B69D31A022BC5
:1031800001D9032360E10D4B5B6A03F00203002BBE
:10319000F0D0012000F0D8FA1CE00A4B00221A609F
:1031A000FEF7FAFD38610FE0FEF7F6FD02463B69D7
:1031B000D31A022B08D9032346E100BF00100240B6
:1031C0000000424280044242924B5B6A03F00203D9
:1031D000002BE9D17B681B6803F00403002B00F08F
:1031E000A6800023FB758B4BDB6903F08053002B1B
:1031F0000DD1884BDB69874A43F08053D361854BFF
:10320000DB6903F08053BB60BB680123FB75824B15
:103210001B6803F48073002B18D17F4B1B687E4A18
:1032200043F480731360FEF7B7FD386108E0FEF7E2
:10323000B3FD02463B69D31A642B01D9032303E192
:10324000754B1B6803F48073002BF0D07B68DB6840
:10325000012B06D16F4B1B6A6E4A43F001031362C8
:103260002DE07B68DB68002B0CD16A4B1B6A694A36
:1032700023F001031362674B1B6A664A23F00403C1
:1032800013621CE07B68DB68052B0CD1614B1B6A69
:10329000604A43F0040313625E4B1B6A5D4A43F0CD
:1032A000010313620BE05B4B1B6A5A4A23F00103D4
:1032B0001362584B1B6A574A23F0040313627B685E
:1032C000DB68002B15D0FEF767FD38610AE0FEF7DA
:1032D00063FD02463B69D31A41F28832934201D919
:1032E0000323B1E04B4B1B6A03F00203002BEED02B
:1032F00014E0FEF751FD38610AE0FEF74DFD02468D
:103300003B69D31A41F28832934201D903239BE0EF
:10331000404B1B6A03F00203002BEED1FB7D012B17
:1033200005D13C4BDB693B4A23F08053D3617B687A
:10333000DB69002B00F08780364B5B6803F00C03E1
:10334000082B61D07B68DB69022B46D1334B00220E
:103350001A60FEF721FD386108E0FEF71DFD024608
:103360003B69D31A022B01D903236DE0294B1B685B
:1033700003F00073002BF0D17B681B6AB3F5803F2C
:1033800008D1244B5B6823F400327B689B68214999
:1033900013434B601F4B5B6823F474127B68196AFC
:1033A0007B685B6A0B431B4913434B601B4B012239
:1033B0001A60FEF7F1FC386108E0FEF7EDFC02460A
:1033C0003B69D31A022B01D903233DE0114B1B6843
:1033D00003F00073002BF0D035E0104B00221A6090
:1033E000FEF7DAFC386108E0FEF7D6FC02463B69DE
:1033F000D31A022B01D9032326E0064B1B6803F0E6
:103400000073002BF0D11EE07B68DB69012B07D134
:10341000012319E0001002400070004060004242A9
:103420000B4B5B68FB60FB6803F480327B681B6AB4
:103430009A4206D1FB6803F470127B685B6A9A4279
:1034400001D0012300E0002318461837BD4680BD97
:103450000010024080B584B000AF786039607B68AE
:10346000002B01D10123D0E06A4B1B6803F0070356
:103470003A689A4210D9674B1B6823F007026549E6
:103480003B6813430B60634B1B6803F007033A6808
:103490009A4201D00123B8E07B681B6803F0020365
:1034A000002B20D07B681B6803F00403002B05D0A1
:1034B000594B5B68584A43F4E06353607B681B6870
:1034C00003F00803002B05D0534B5B68524A43F4CA
:1034D00060535360504B5B6823F0F0027B689B683D
:1034E0004D4913434B607B681B6803F00103002BBD
:1034F00040D07B685B68012B07D1474B1B6803F406
:103500000033002B15D101237FE07B685B68022B21
:1035100007D1414B1B6803F00073002B09D1012335
:1035200073E03D4B1B6803F00203002B01D1012324
:103530006BE0394B5B6823F003027B685B683649BC
:1035400013434B60FEF728FCF8600AE0FEF724FC0A
:103550000246FB68D31A41F28832934201D9032311
:1035600053E02D4B5B6803F00C027B685B689B00AB
:103570009A42EBD1274B1B6803F007033A689A4243
:1035800010D2244B1B6823F0070222493B681343E7
:103590000B60204B1B6803F007033A689A4201D086
:1035A000012332E07B681B6803F00403002B08D082
:1035B000194B5B6823F4E0627B68DB6816491343B0
:1035C0004B607B681B6803F00803002B09D0124B8B
:1035D0005B6823F460527B681B69DB000E49134370
:1035E0004B6000F021F802460B4B5B681B0903F0AF
:1035F0000F030A49CB5C22FA03F3094A1360094B13
:103600001B681846FEF786FB002318461037BD4698
:1036100080BD00BF002002400010024094870008D7
:10362000140000201800002090B48AB000AF294B8D
:103630003C1D0FCB84E80F0040F201233B800023A8
:10364000FB610023BB6100237B6200237B610023BD
:103650003B62214B5B68FB61FB6903F00C03042BAD
:1036600002D0082B03D02BE01C4B3B622BE0FB6904
:103670009B0C03F00F0328333B4413F8243C7B617D
:10368000FB6903F48033002B12D0134B5B685B0C97
:1036900003F0010328333B4413F8283CBB617B69EA
:1036A0000E4A03FB02F2BB69B2FBF3F37B6204E058
:1036B0007B690B4A02FB03F37B627B6A3B6202E09D
:1036C000064B3B6200BF3B6A18462837BD4690BC9C
:1036D000704700BFBC7200080010024000127A0060
:1036E00000093D0080B400AF024B1B681846BD4680
:1036F00080BC70471400002080B500AFFFF7F2FFD8
:103700000246054B5B681B0A03F007030349CB5CC9
:1037100022FA03F3184680BD00100240A487000877
:1037200080B500AFFFF7DEFF0246054B5B68DB0AA2
:1037300003F007030349CB5C22FA03F3184680BD6C
:1037400000100240A487000880B485B000AF786004
:103750000A4B1B680A4AA2FB03235B0A7A6802FB36
:1037600003F3FB6000BFFB685A1EFA60002BF9D11F
:1037700000BF00BF1437BD4680BC70471400002056
:10378000D34D621080B582B000AF78607B68002BAB
:1037900001D101233FE07B6893F83D30DBB2002B81
:1037A00006D17B68002283F83C207868FEF788F811
:1037B0007B68242283F83D207B681B68DA687B687D
:1037C0001B6822F40052DA60786800F0B3FB7B6873
:1037D0001B681A697B681B6822F490421A617B6837
:1037E0001B685A697B681B6822F02A025A617B6851
:1037F0001B68DA687B681B6842F40052DA607B68F9
:1038000000221A647B68202283F83D207B682022F6
:1038100083F83E20002318460837BD4680BD80B59A
:1038200084B000AFF860B9601346FB80FB6893F882
:103830003E30DBB2202B1DD1BB68002B02D0FB88B1
:10384000002B01D1012316E0FB6893F83C30012BDB
:1038500001D102230FE0FB68012283F83C20FB68C2
:1038600000221A63FB881A46B968F86800F0D8F994
:10387000034600E0022318461037BD4680BD000015
:1038800080B58AB000AF78607B681B681B687B627C
:103890007B681B68DB683B627B681B685B69FB615C
:1038A0000023BB6100237B617B6A03F00F03BB61D4
:1038B000BB69002B0DD17B6A03F02003002B08D0DD
:1038C0003B6A03F02003002B03D0786800F088FAED
:1038D0007BE1BB69002B00F0B180FB6903F00103C1
:1038E000002B05D13B6A03F49073002B00F0A680F7
:1038F0007B6A03F00103002B0AD03B6A03F4807358
:10390000002B05D07B681B6C43F001027B681A64B6
:103910007B6A03F00403002B0AD0FB6903F0010368
:10392000002B05D07B681B6C43F002027B681A6495
:103930007B6A03F00203002B0AD0FB6903F001034A
:10394000002B05D07B681B6C43F004027B681A6473
:103950007B6A03F00803002B0FD03B6A03F02003BF
:10396000002B04D1FB6903F00103002B05D07B6819
:103970001B6C43F008027B681A647B681B6C002B8D
:1039800000F01E817B6A03F02003002B07D03B6A06
:1039900003F02003002B02D0786800F021FA7B6846
:1039A0001B685B6903F04003002B14BF0123002355
:1039B000DBB27B617B681B6C03F00803002B02D138
:1039C0007B69002B31D0786800F063F97B681B6855
:1039D0005B6903F04003002B23D07B681B685A69A6
:1039E0007B681B6822F040025A617B689B6B002B4E
:1039F00013D07B689B6B764A5A637B689B6B184637
:103A0000FEF71CFB0346002B16D07B689B6B5B6BA1
:103A10007A68926B104698470EE0786800F0ECF8F0
:103A20000AE0786800F0E8F806E0786800F0E4F86A
:103A30007B6800221A64C3E000BFC1E07B681B6B97
:103A4000012B40F0A1807B6A03F01003002B00F0F3
:103A50009B803B6A03F01003002B00F0958000234D
:103A6000FB607B681B681B68FB607B681B685B688E
:103A7000FB60FB687B681B685B6903F04003002BFD
:103A80004ED07B689B6B1B685B683B823B8A002B3C
:103A900000F098807B689B8D3A8A9A4280F09280F1
:103AA0007B683A8ADA857B689B6B9B69202B2BD0DD
:103AB0007B681B68DA687B681B6822F48072DA60B6
:103AC0007B681B685A697B681B6822F001025A6197
:103AD0007B681B685A697B681B6822F040025A6148
:103AE0007B68202283F83E207B6800221A637B6873
:103AF0001B68DA687B681B6822F01002DA607B685A
:103B00009B6B1846FEF75FFA7B689A8D7B68DB8DAE
:103B10009BB2D31A9BB21946786800F076F851E050
:103B20007B689A8D7B68DB8D9BB2D31A7B827B6826
:103B3000DB8D9BB2002B47D07B8A002B44D07B6867
:103B40001B68DA687B681B6822F49072DA607B6815
:103B50001B685A697B681B6822F001025A617B6806
:103B6000202283F83E207B6800221A637B681B6852
:103B7000DA687B681B6822F01002DA607B8A1946DB
:103B8000786800F042F81FE07B6A03F08003002BA6
:103B900008D03B6A03F08003002B03D0786800F064
:103BA000B8F812E07B6A03F04003002B0DD03B6AAB
:103BB00003F04003002B08D0786800F0F9F804E027
:103BC00000BF02E000BF00E000BF2837BD4680BD57
:103BD000EB3C000880B483B000AF786000BF0C37C6
:103BE000BD4680BC704780B483B000AF786000BF32
:103BF0000C37BD4680BC704780B483B000AF78609E
:103C000000BF0C37BD4680BC704780B483B000AFA6
:103C100078600B467B8000BF0C37BD4680BC704788
:103C200080B485B000AFF860B9601346FB80FB68D4
:103C3000BA689A62FB68FA889A85FB68FA88DA851E
:103C4000FB6800221A64FB68222283F83E20FB688E
:103C5000002283F83C20FB681B68DA68FB681B685D
:103C600042F48072DA60FB681B685A69FB681B6863
:103C700042F001025A61FB681B68DA68FB681B6846
:103C800042F02002DA60002318461437BD4680BC9B
:103C9000704780B483B000AF78607B681B68DA68D7
:103CA0007B681B6822F49072DA607B681B685A6933
:103CB0007B681B6822F001025A617B681B6B012B39
:103CC00007D17B681B68DA687B681B6822F01002EA
:103CD000DA607B68202283F83E207B6800221A632A
:103CE00000BF0C37BD4680BC704780B584B000AFC4
:103CF00078607B685B6AFB60FB680022DA85FB68A2
:103D00000022DA84F868FFF777FF00BF1037BD465E
:103D100080BD80B485B000AF78607B6893F83D309B
:103D2000DBB2212B3ED17B689B68B3F5805F14D159
:103D30007B681B69002B10D17B681B6AFB60FB68EA
:103D40001B881A467B681B68C2F308025A607B68AE
:103D50001B6A9A1C7B681A6208E07B681B6A591C04
:103D60007A6811621A787B681B685A607B68DB8C02
:103D70009BB2013B9BB27A681946D184002B0FD1CC
:103D80007B681B68DA687B681B6822F08002DA6057
:103D90007B681B68DA687B681B6842F04002DA6067
:103DA000002300E0022318461437BD4680BC70474C
:103DB00080B582B000AF78607B681B68DA687B688A
:103DC0001B6822F04002DA607B68202283F83D20E5
:103DD0007868FFF7FFFE002318460837BD4680BD10
:103DE00080B586B000AF78607B6893F83E30DBB278
:103DF000222B40F099807B689B68B3F5805F17D1D8
:103E00007B681B69002B13D100237B617B689B6A55
:103E10003B617B681B685B689BB2C3F308039AB283
:103E20003B691A807B689B6A9A1C7B689A6226E0D1
:103E30007B689B6A7B6100233B617B689B68B3F571
:103E4000805F07D07B689B68002B0AD17B681B6969
:103E5000002B06D17B681B685B68DAB27B691A703D
:103E600008E07B681B685B68DBB203F07F03DAB2B3
:103E70007B691A707B689B6A5A1C7B689A627B68B4
:103E8000DB8D9BB2013B9BB27A681946D185002B32
:103E900048D17B681B68DA687B681B6822F02002C7
:103EA000DA607B681B68DA687B681B6822F48072C2
:103EB000DA607B681B685A697B681B6822F0010224
:103EC0005A617B68202283F83E207B681B6B012BA4
:103ED00023D17B6800221A637B681B68DA687B68E1
:103EE0001B6822F01002DA607B681B681B6803F015
:103EF0001003102B0AD10023FB607B681B681B6832
:103F0000FB607B681B685B68FB60FB687B689B8D64
:103F100019467868FFF779FE02E07868FFF763FEDC
:103F2000002302E0002300E0022318461837BD46B4
:103F300080BD000080B584B000AF78607B681B68EE
:103F40001B6923F440517B68DA687B681B680A436D
:103F50001A617B689A687B681B691A437B685B6996
:103F60001343BB607B681B68DB6823F4B05323F00A
:103F70000C037A681268B9680B43D3607B681B68CE
:103F80005B6923F440717B689A697B681B680A430C
:103F90005A617B681B682C4A934203D1FFF7C0FB30
:103FA000F86002E0FFF7A8FBF860FA6813469B0090
:103FB00013449A001A447B685B689B00B2FBF3F3DE
:103FC000224AA2FB03235B091901FA6813469B00EE
:103FD00013449A001A447B685B689B00B2FBF3F2BF
:103FE0001A4BA3FB02035B09642000FB03F3D31A03
:103FF0001B013233154AA2FB03235B0903F0F003D4
:104000001944FA6813469B0013449A001A447B68CB
:104010005B689B00B2FBF3F20C4BA3FB02035B0952
:10402000642000FB03F3D31A1B013233074AA2FBBF
:1040300003235B0903F00F027B681B680A449A6044
:1040400000BF1037BD4680BD003801401F85EB51D1
:10405000014B1868704700BF2000002070B5002693
:104060000C4D0D4C641BA410A64209D103F0E4F8DA
:1040700000260A4D0A4C641BA410A64205D170BD4F
:1040800055F8043B98470136EEE755F8043B98474E
:104090000136F2E7388C0008388C0008388C0008AC
:1040A0003C8C0008024B0146186800F073B800BF52
:1040B0002000002003460244934200D1704703F8D9
:1040C000011BF9E738B50546002940D051F8043CFA
:1040D0000C1F002BB8BFE41801F030FB1C4A13681A
:1040E00033B9636014602846BDE8384001F02CBB4A
:1040F000A34208D9206821188B4201BF19685B6868
:1041000009182160EDE71A465B680BB1A342FAD9A2
:1041100011685018A0420BD1206801445018834206
:104120001160E0D118685B68014411605360DAE700
:1041300002D90C232B60D6E7206821188B4201BFDF
:1041400019685B680918216063605460CBE738BD6B
:104150004408002070B50E4E0C463168054611B972
:1041600000F08CF830602146284600F087F8431CA8
:104170000AD0C41C24F00304A04207D0211A284608
:1041800000F07CF8013001D14FF0FF34204670BDC3
:10419000480800202DE9F041CD1C25F00305083525
:1041A0000C2D38BF0C25002D074601DBA94205D98F
:1041B0000C2300263B603046BDE8F0812E4E01F016
:1041C000BDFA33681C4634BB29463846FFF7C2FFA8
:1041D000431C04464DD134682646002E40D1236846
:1041E0003146384604EB030800F048F880453AD1E0
:1041F000216803356D1A25F0030508350C2D38BFED
:104200000C2538462946FFF7A5FF01302BD023683F
:104210002B4423600EE02268521B1ED40B2A16D9B1
:104220006119A342256018BF5960636808BF3160F7
:1042300062514B60384604F10B0601F085FA26F016
:104240000706231DF21AB6D09B1BA350B3E7626882
:10425000A3420CBF32605A60ECE723466468B2E7C1
:1042600034467668B9E70C2338463B6001F06CFAB7
:10427000A1E72560DEE700BF4408002038B5002331
:10428000054D044608462B60FDF7CCFC431C02D1CB
:104290002B6803B1236038BD4C0800200EB46FF0CA
:1042A000004100B59CB01DAB0290069007910491AF
:1042B0000848094953F8042B0591006802A90193A5
:1042C00001F070FF0022029B1A701CB05DF804EB35
:1042D00003B07047200000200802FFFF034611F8DA
:1042E000012B03F8012B002AF9D170472DE9F04189
:1042F0000F46904601F09EFD04460D46B8F1000FB2
:1043000011D0C7F30A53C3F16B03002B0BDD00245C
:104310001B0503F17F5505F5401522462B46FCF79A
:10432000E5F804460D4620462946BDE8F081000028
:104330002DE9F04F9B4600239FB01A939E4B824677
:104340001F680E4638461592FBF70CFF4FF0000829
:1043500004464FF000091996199B1A782B2A4CD065
:104360003AD80D2A33D8082A33D8002A3DD0002362
:104370000A93199D2B78302B40F0AA806B7803F0BC
:10438000DF03582B66D10A9B504601931AAB00936A
:104390008A4ACDF808B01BAB19A900F0B1FE10F0A5
:1043A0000706044605D0062E29D1002301351995AC
:1043B0000A93159B002B40F08A850A9BD3B1424695
:1043C00009F10043104619461FB0BDE8F08F202ABE
:1043D000CDD101331993BFE72D2AC8D101220A920A
:1043E0005A1C19925B78002BC3D1159B1996002B90
:1043F00040F06B8542464B46E4E70022EFE71A9A0D
:104400003AB135211CA801F019FE50461A9901F065
:10441000E1F9013E042E06D8DFE806F00A0314177E
:104420000A00DDE91C892107C3D549F00049C0E72E
:104430001B9ADDE91C8302F2334223F4801343EA22
:104440000259F0E7DFF87891EDE76FF000494FF09F
:10445000FF38E8E7199B5A1C19925B78302BF9D08A
:10446000002BA6D001230793199B0A22089300234F
:104470009B46CDE9053319980578A5F13003D9B2EB
:10448000092927D92246394602F080FA002833D07C
:1044900000202A465C4603460490652A01D0452A3E
:1044A00014D11CB9079A02439FD00024199E721C94
:1044B000199272782B2A79D02D2A00F08380002758
:1044C000A2F13001092940F28380199600259FE06E
:1044D0000023C8E7BBF1080FD5BF0699059902FB79
:1044E000013302FB013300F10100D4BF06930593B1
:1044F0000BF1010B1990BEE7199B1A1919921A5D5D
:10450000BBF1000F36D05C460490A2F13003092BBA
:1045100012D90123C1E7199B01305A1C19925A780C
:10452000302AF8D0A2F13103082B00F2D584049090
:1045300000200446199B0893303A00F1010313D080
:10454000049905191944049123460A21AB4213D159
:104550002318082B04F1010404441BDC0A230699E8
:1045600003FB012306930023199A1846511C199145
:104570005278CAE75846D3E7082B04DC069F4F431E
:1045800006970133E2E75F1C102FDEBF059F4F4304
:104590000597F6E7102CDFBF0A23059903FB0123DB
:1045A0000593E0E70023049301237BE70027B21C77
:1045B0001992B27884E700BF38890008BC870008E8
:1045C0000000F07F0127F2E7199A511C19915278E7
:1045D000302AF9D0A2F1310108293FF677AF4FF028
:1045E0000A0EA2F1300C199A0992199A511C1991CC
:1045F0005278A2F13005092D35D9099D491B0829AA
:1046000044F61F6502DC6545A8BF654607B16D42EB
:10461000002C4CD1079901437FF4CBAE002B7FF4E3
:10462000E4AE692A26D023DC492A23D04E2A7FF41F
:10463000DCAE9D4919A800F0B1FF00283FF4D5AECB
:10464000199B1B78282B2CD198491CAA19A800F07B
:10465000B9FF052825D11D9BDDF8708043F0FF4987
:1046600049F4E009A5E60EFB0C2CACF1300CBCE7DC
:104670006E2ADCE78E4919A800F090FF00283FF46D
:10468000B4AE199B8B49013B19A8199300F086FF22
:1046900010B9199B013319934FF00008DFF81892F5
:1046A00087E6864802F06CF98046894681E6049BDD
:1046B000BBF1000F08BFA346EB1A102C0698264644
:1046C0000793A8BF1026FBF797FE092C8046894662
:1046D00013DD7B4B03EBC60353E91223FBF706FF05
:1046E000804605988946FBF787FE02460B46404602
:1046F0004946FBF745FD804689460F2C36DC079B73
:10470000002B3FF456AE22DD162B09DC6C494246E5
:1047100001EBC3014B46D1E90001FBF7E7FEC3E71C
:10472000079AC4F12503934220DB654DC4F10F04C1
:1047300005EBC4014246D1E900014B46FBF7D6FE2A
:10474000079B1C1B05EBC405D5E90023E5E7079B88
:1047500016330BDB049B40465D1B594B494603EB6C
:10476000C505D5E90023FBF7EBFF9DE7079BA61BDB
:104770001E44002E74DD16F00F030AD05049424645
:1047800001EBC301D1E900014B46FBF7AFFE8046C8
:10479000894636F00F0652D0B6F59A7F27DD4FF0E6
:1047A000000BCDF810B0CDF820B0CDF818B0222312
:1047B0004FF00008DFF80091CAF80030089B002B8A
:1047C0003FF4F7AD50461A9901F004F850460699A7
:1047D00001F000F85046049900F0FCFF504608999B
:1047E00000F0F8FF5946504600F0F4FFE1E5354B84
:1047F00040460593002349461F463611012E21DC11
:104800000BB1804689462F4BA9F1547903EBC707BA
:104810004246D7E900014B46FBF768FE264B0A46A5
:104820000B40294980468B42B9D8A1F580118B42B3
:1048300086BF4FF0FF38DFF8949002F154790023DF
:1048400005937FE0F20705D5059BD3E90023FBF72D
:104850004DFE0123059A0137083276100592CDE707
:10486000EDD0764216F00F020AD0154B404603EB0E
:10487000C2034946D3E90023FBF762FF804689461D
:104880003611DCD01F2E23DD4FF0000BCDF810B019
:10489000CDF820B0CDF818B022234FF000084FF02B
:1048A0000009CAF8003089E7B9870008D0870008F6
:1048B000B0870008B38700080000F07FBF880008B9
:1048C000D0890008A88900080000A07CFFFFEF7FC6
:1048D00016F0100318BF6A2340460593494600238B
:1048E000B04FF20704D5D7E90023FBF7FFFD012302
:1048F000761007F10807F4D10BB180468946059B75
:10490000C3B1C9F30A52C2F16B03002B494611DD52
:104910001F2B40F32781342BD8BF4FF0FF334FF0CC
:104920000008CFBF4FF05C79C2F14B0203FA02F2EC
:1049300002EA01090022002340464946FCF73EF8FE
:104940000028A1D1069B5A46009350462346089959
:1049500000F0A8FF089000283FF421AF049B4FF01F
:10496000000B5D1B079BCDF810B0002BB4BF2B468E
:1049700000230E93079B23EAE3731493089B50468E
:10498000596800F0E7FE069000283FF410AF089B3E
:104990000C301A6903F10C010232920000F0C0FEE3
:1049A0001CAB01931BAB009342464B465046CDE9EE
:1049B0000C8901F0B9FA1A9000283FF4F8AE0121F1
:1049C000504601F007F80346049000283FF4EFAE8C
:1049D0001B9D1C9A002DABBF0E9B149BEE185C1BFD
:1049E000059BA8BF149CA5EB030515446E4B05F170
:1049F000FF35B8BF0E9E9D42C2F1360280F2C480E0
:104A00005B1B1F2B4FF00107A2EB030200F3B180E9
:104A1000002507FA03F30F93B718059BBE42144411
:104A20001C443346A8BF3B46A342A8BF2346002BE5
:104A3000C2BFFF1AE41AF61A0E9B002B17DD1A46A6
:104A40005046049901F084F8049000283FF4AFAE7A
:104A500001461A9A504600F0D3FF099000283FF40F
:104A6000A6AE50461A9900F0B5FE099B1A93002F86
:104A700000F38E80079B002B08DD5046149A0699A0
:104A800001F066F8069000283FF491AE002C08DD96
:104A900022465046069901F0B5F8069000283FF4EA
:104AA00086AE002E08DD32465046049901F0AAF881
:104AB000049000283FF47BAE5046069A1A9901F004
:104AC0002DF9834600283FF472AE0024C368049990
:104AD000C4600B9301F006F9A0426BDA0B9B53EA1A
:104AE000080340F09180C9F31303002B40F08C8041
:104AF00029F000431B0D1B05B3F1D66F40F28480F3
:104B0000DBF814301BB9DBF81030012B7CDD594683
:104B10000122504601F076F80499834601F0E2F84C
:104B2000002871DD05994B46204A002900F08C8051
:104B300002EA0901B1F1D66F00F38680B1F15C7F22
:104B40007FF7AAAE40464946194B0022FBF7CEFC40
:104B50000B46034308BF22238046894608BFCAF894
:104B600000302FE64FF0FF3202FA03F303EA0808A1
:104B7000E0E6C5F17F4505F57F0505F57B45E235A6
:104B800007FA05F50F9747E7012300250F9343E741
:104B90003A4650461A9901F035F81A9000287FF4E9
:104BA00069AF04E6E887000802FCFFFF0000F07F21
:104BB00000005039CDF8249065D10B9AC9F3130346
:104BC0005AB3994A93422BD1059B414603B34A46B7
:104BD000964B1340B3F1D46F4FF0FF321BD81B0D2F
:104BE000C3F16B0302FA03F3994219D1904B099A6E
:104BF0009A4202D101313FF4DAAD4FF000088B4BFD
:104C0000099A1A4002F58019059B002B9AD1D9E523
:104C10004FF0FF33E8E71346E6E753EA080381D095
:104C2000E5B1099B1D42EFD00B9B40464946059AD2
:104C3000C3B1FFF75BFB02460B46DDE90C01FBF756
:104C40009FFA80468946DFE71340A3F580136FEA99
:104C500013594FF0FF386FEA0959D5E70F9B13EA54
:104C6000080FE0E7FFF742FB02460B46DDE90C01C7
:104C7000FBF784FA0022002380468946FBF79EFE5C
:104C80000028C1D008E65846049901F0A9F900228D
:104C90004FF0804306460F46FBF7A4FE002870D075
:104CA0000B9B002B42D00026624F624D099B23F0E4
:104CB00000431B0D1B050F930F9A5F4B9A4240F068
:104CC000C380099B4046A3F15479494601F0B2F8EC
:104CD00002460B4630463946FBF708FC42464B4637
:104CE000FBF74EFA0B465149544A1940914280460F
:104CF0005DD90D9A4E4B9A4203D10C9B01333FF480
:104D000056AD4FF0FF38DFF8289150461A9900F061
:104D100061FD5046069900F05DFD5046049900F093
:104D200059FD5946504600F055FD27E6B8F1000FF1
:104D300019D1099BC3F31303E3B900223046394666
:104D40003C4BFBF745FEC8B90022304639463C4B88
:104D5000FBF7CCFB04460D4605F100431694179370
:104D6000DDE91667A2E7B8F1010F03D1099B002B1B
:104D70003FF492AD00260024324F96E70B9C304D55
:104D8000EAE72F4B002230463946FBF7AFFB0B9B7F
:104D900004460D4633B901F1004310901193DDE94B
:104DA000106783E702460B46CDE91023F7E703F1CE
:104DB0005479059B002BA8D129F000430F9A1B0DB5
:104DC0001B059A42A1D120462946FBF771FEFBF74D
:104DD0005FFB02460B4620462946FBF7CFF90B9AAC
:104DE000C9F3130343EA0803134304460D4666D090
:104DF00009A3D3E90023FBF7EBFD00287FF4E2AC25
:104E000007A3D3E9002320462946FBF7FFFD00282E
:104E10003FF47BAFD6E400BF9535A094FFFFDF3FA2
:104E200035E5AF350000E03FFFFF0F000000F07FE9
:104E3000FFFFEF7F0000F03F0000E07FFFFF9F7C5F
:104E40000000E03F0000F0BF059B13B30F9BB3F1E0
:104E5000D46F1ED826A3D3E9002320462946FBF7AA
:104E6000C1FD90B129462046FBF702FE012838BF5C
:104E70000120FBF7C1FA0B9B04460D46D3B901F1A3
:104E8000004312901393DDE912670F9A07F1D6637E
:104E90009F1ADDE90C0100F0CDFF02460B463046BB
:104EA0003946FBF723FBDDE90C23FBF769F9804664
:104EB00089467EE702460B46CDE91223E3E70EA3BF
:104EC000D3E90023FBF784FDA1E700230A93199B94
:104ED000159A1360FFF771BA652A3FF463AB452A50
:104EE0003FF460AB0123FFF795BB00BFAFF3008039
:104EF0000000C0FFFFFFDF419535A094FFFFCF3FCB
:104F00000A4601460248034B0068FFF711BA00BF8A
:104F10002000002088000020164B2DE9F0411F687A
:104F20000546BC6D0E46ECB95020FFF7BBF80246B3
:104F3000B86520B95721104B104800F049F8C0E976
:104F40000044C0E90244C0E90444C0E90A44C0E99D
:104F50000C44C0E90E44C0E91044C0E91244846125
:104F60000477446231462846BA6D0123BDE8F0411A
:104F700000F006B8200000201088000827880008EC
:104F8000F0B508B9106888B104460F46204614F8F9
:104F9000015B17F8016B1EB965B92846156005E07D
:104FA000B542F6D1002BF0D114600370F0BD1C4661
:104FB0000CE015B90E4614F8013B16F8015BAB4244
:104FC000F7D1002BF3D0002304F8013C1460EDE787
:104FD0001FB514461A46094B05461B68D8684CB1E4
:104FE000074BCDE9013400912B46064900F00EF83D
:104FF00001F0AEFD044B1C46F3E700BF200000208B
:105000008488000891880008BF8800080EB403B5A2
:10501000014603AB054853F8042B0068019301F0E7
:10502000E9F902B05DF804EB03B0704720000020FE
:1050300003692DE9F043B3EB611F00F114044FEA5B
:10504000611246DD11F01F0104EB830604EB8205BB
:105050000CD1294600F11007B14235D39B1A9B00B1
:10506000EA1E964238BF0023234415E0A14654F8B7
:105070002270C1F12008CF4005F1040E7645F446B8
:1050800016D89A1A9200043A0135AE4238BF00226F
:10509000A318A75007B10433A342A3EB040208BF2F
:1050A00000234FEAA202026108BF4361BDE8F0831A
:1050B000DCF800C00CFA08FC4CEA070749F8047B4E
:1050C0005EF8047BCF40D9E751F804CB47F804CF12
:1050D000C2E72346E0E7A0F13003092B02D82038CD
:1050E000C0B27047A0F16103052B01D84738F7E73C
:1050F000A0F14103052B01D82738F1E700207047C4
:105100002DE9F04F8BB00593B24B02901B688B4694
:10511000184690460393FBF725F88246039BDBF87D
:105120000020034413F8013C0693931CC2F1FF22B4
:1051300002F57F02FE32D1181F4613F8010B0191D0
:105140003028F8D0FFF7C7FF044600283AD152466E
:105150003846039901F01AFC0546002866D117F875
:105160000A0007EB0A06FFF7B6FF002860D03346B7
:1051700018781F46302803F10103F9D0FFF7ABFF81
:105180000123B0FA80F43546640901933A46164685
:1051900030780132FFF79FFF0028F8D152463046A1
:1051A000039901F0F3FB80B94DB906EB0A052A46D5
:1051B000164630780132FFF78EFF0028F8D1AD1B7C
:1051C000AD0004E000242546E0E7002DF7D1337858
:1051D00003F0DF03502B39D173782B2B2AD02D2BE2
:1051E0002CD04FF00009711C0878FFF774FF431EA4
:1051F000DBB2182B2AD8A0F1100211F8010FFFF72B
:105200006AFF431EDBB2182B1BD9B9F1000F00D087
:1052100052421544CBF80010D4B1019B002B14BFAF
:105220000027062738460BB0BDE8F08F3E462546DE
:105230000124CCE74FF00009B11CD5E74FF001097C
:10524000FAE70A2303FB0202103AD6E73146E1E708
:105250002146F31B013B072B0ADC029800F07AFA87
:10526000044640B90246DE215B4B5C48FFF7B0FEC6
:1052700001315B10EFE74FF0000B00F11409CAF1A8
:105280000103CDF81090CDF804B00893B7423FD396
:10529000049F019B47F8043BA7EB0907BF10276158
:1052A000184600F049FB7F01D8F800603F1AB7426A
:1052B00062DDBF1B3946204600F0E3FE8246A8B1FE
:1052C0004FF0010A7B1E591159F8211003F01F02FB
:1052D0000AFA02F20A4209D0534505DD2046B91EFA
:1052E00000F0CFFE002844D14FF0020A3946204694
:1052F000FFF79EFE3D44D8F80830AB424ADA21461B
:10530000029800F067FA0023149AA327136089E734
:10531000731E069A079316F8013C934219D0BBF10D
:10532000200F07D1049B019A43F8042B0493002318
:105330009B46019316F8010CFFF7CDFE019B00F090
:105340000F0000FA0BF0034301930BF1040B079BD2
:105350000DE0089A731E1344BB42E0D31846524630
:105360000399099301F012FB099B0028D7D11E462F
:105370008CE74FF0030AB9E709DAF71B21463A46F2
:10538000029800F03FFC0446ED1B00F114094FF0B9
:10539000000AB0E7D8F80400A84272DD451BAE420F
:1053A00035DCD8F80C30022B29D0032B2BD0012B65
:1053B0001CD1AE421AD1012E12D1D8F80430059A70
:1053C0006227136001232361C9F80030149B1C601D
:1053D00028E700BF38890008C0880008D188000885
:1053E0002046711E00F04DFE0028E6D121460298AD
:1053F00000F0F0F90023149A5027136012E7159B70
:10540000002BF3D1D9E7159B002BD6D1EEE76F1E09
:10541000BAF1000F32D127B13946204600F031FEF3
:10542000824601217B1159F8233007F01F0701FA4A
:1054300007F71F424FF002072946204618BF4AF0DF
:10544000020A761BFFF7F4FDD8F80450BAF1000FFA
:1054500048D0D8F80C30022B15D0032B17D0012BD5
:1054600009D11AF0020F06D0D9F800004AEA000A62
:105470001AF0010F0ED147F0100733E04FF0010A88
:10548000CFE70127E2E7159BC3F101031593159BB5
:10549000002BF0D04FF0000CD4F810B004F114033E
:1054A0004FEA8B0A03EB8B01184653F8042BB2F139
:1054B000FF3F1CD001320260022F04F114033DD1E2
:1054C000D8F80020013AB2420AD10122711153F8F2
:1054D000213006F01F0602FA06F61E4218BF1746D4
:1054E00047F02007149B1C60059B1D609AE69942BB
:1054F00043F804CCD8D8A3689B4517DB61680298B1
:10550000013100F027F9814618B902468421194B70
:10551000ABE6226904F10C01023292000C3000F07B
:10552000FFF82146029800F055F94C4623695A1CB1
:105530002261012204EB83035A61BDE722695A45C7
:105540000BDD01212046FFF773FDD8F80830013547
:10555000AB42FFF6D4AE0127C2E716F01F06FAD021
:10556000534453F8040C00F0E7F9C6F12006B042AA
:10557000E7DBF0E7C0880008C2F10802920070B5CE
:10558000C2F120064368046803FA06F52C43D340B1
:10559000046040F8043F8842F4D370BD30B503681E
:1055A000013311F8014B14B90360012030BD13F829
:1055B000012BA2F14105192D98BF2032A242F0D053
:1055C0000020F3E72DE9F04F00250B6882465E11BD
:1055D00002EB860613F01F0318BF0436371FB946C7
:1055E0003C46AB4687B090460268019346F8045C9F
:1055F00002955178531C039341B3084605920491D8
:10560000FFF769FD00284FD10499059A202918D881
:10561000029B9B4513DD4C4506D2072D04DC2A4630
:1056200049462046FFF7A8FF444550D90023A4F17E
:10563000040944F8043C1D464C46CDF808B0039AD2
:10564000D7E7292956D10232CAF80020BBF1000F52
:1056500050D04C4506D2072D04DC2A464946204648
:10566000FFF78AFF444534D92346A8F1040253F8D2
:10567000041B9F4242F8041FF9D23B1B23F0030393
:1056800004330134033EB44288BF04230022434460
:1056900043F8042B9F42FBD23B681BB9474527D1F7
:1056A00001233B60052026E00135082D0BF1010B9D
:1056B00006DD4445C3D90023012544F8043C043CDD
:1056C000226800F00F0040EA02122260B7E70825C6
:1056D000B5E7019B002BDFD04FF0FF32C3F1200371
:1056E00022FA03F356F8042C1A4046F8042CD3E7A8
:1056F000043FD1E7042007B0BDE8F08F82B001B9C4
:1057000001A942B14BB113780B601278101E18BF7B
:10571000012002B070471046FBE76FF00100F8E788
:105720000A44914200F1FF3300D1704710B511F8DF
:10573000014B914203F8014FF9D110BD014801F02E
:10574000C3BB00BF50080020014801F0BEBB00BF32
:105750005008002070B5466A04460D4676B9102000
:10576000FEF7A0FC0246606220B96621174B18487C
:10577000FFF72EFCC0E901660660C660666AF36842
:1057800083B1636ADB6853F82500B8B9012101FAD7
:1057900005F6721D2046920000F094FC60B1C0E94D
:1057A00001560EE021220421204600F08BFC636AA2
:1057B000F060DB68002BE4D1002070BD026843F884
:1057C00025200023C0E90333F7E700BF1088000855
:1057D0004C89000870B5466A05460C4676B910201B
:1057E000FEF760FC0246686220B98A21084B09482E
:1057F000FFF7EEFBC0E901660660C6603CB16B6A6C
:105800006268DB6853F82210216043F8224070BDC3
:10581000108800084C8900082DE9F04107460C4625
:105820001E4600200D6901F1140CDCF80030013037
:1058300099B202FB01611E0C0B0C02FB063389B20C
:1058400001EB034185424FEA13464CF8041BECDCA4
:105850000EB3A368AB4219DC616838460131FFF72B
:1058600079FF804628B90246B5210C4B0C48FFF75A
:10587000AFFB226904F10C01023292000C30FFF7F9
:105880004FFF21463846FFF7A5FF444604EB85034A
:1058900001355E6125612046BDE8F081C0880008C1
:1058A0004C8900082DE9F843154609221F460833A4
:1058B0000C4693FBF2F30646012200219A4209DBD3
:1058C0003046FFF747FF40B90246CE21184B194832
:1058D000FFF77EFB52000131F0E7089B092D436181
:1058E0004FF00103036116DD04F10909C8462C4499
:1058F00018F8013B01460A223046303BFFF78CFF87
:10590000A045F5D1A5F108044C442D1B6319BB42F9
:1059100004DBBDE8F88309250A34F6E714F8013BF7
:1059200001460A223046303BFFF776FFEEE700BF24
:10593000C08800084C890008020C12040346CAB94A
:105940000304102013F07F4F04BF1B02083013F034
:10595000704F04BF1B01043013F0404F04BF9B0085
:105960000230002B05DB13F0804F00F1010008BF6F
:10597000202070470020E5E70368024613F0070087
:105980000BD0D90721D4980749BF5B089B08012099
:1059900013605CBF02201360704799B209B91020F0
:1059A0001B0CD9B209B908301B0A190704BF1B091F
:1059B0000430990704BF9B080230D90703D45B0861
:1059C00000F1010003D013607047002070472020D1
:1059D0007047000010B50C460121FFF7BBFE0246E0
:1059E00028B94FF4A071044B0448FFF7F1FA0123E2
:1059F0004461036110BD00BFC08800084C890008E5
:105A00002DE9F04F91460A69D9F810300C469A42B8
:105A1000BEBF0B464C4699462769D9F810A0A3682B
:105A2000616807EB0A06B34285B0B8BF0131FFF7E2
:105A300091FE30B9024640F25D11434B4348FFF7F7
:105A4000C7FA00F114052B46002205EB86084345F2
:105A500021D304F1140303EB870709F1140303EBCB
:105A60008A0202923A1B153A22F00302043204F130
:105A700015018F4238BF04220192029A03939A4281
:105A80000CD8002E03DD58F8043D002B59D00661D8
:105A900005B0BDE8F08F43F8042BD8E7B3F800A0B9
:105AA000BAF1000F23D0A9464FF0000C04F1140EF8
:105AB0005EF8042BD9F800101FFA82FB89B20AFBAA
:105AC0000B116144D9F800C0120C4FEA1C4C0AFBC0
:105AD00002C202EB114289B241EA024177454FEA24
